:10000000F9C1000030C200002EC200002CC2000066
:100010002AC2000028C2000026C2000024C200003C
:1000200022C2000020C200000C941F220C94EB227C
:100030000C94061D18C2000016C2000014C2000075
:1000400012C2000010C200000EC200000CC200006C
:100050000AC200000C947D1D06C2000004C200000C
:1000600002C2000000C20000FEC10000FCC100008E
:10007000FAC10000F8C10000F6C10000F4C10000A0
:10008000F2C10000F0C10000EEC10000ECC10000B0
:10009000EAC10000E8C10000E6C10000E4C10000C0
:1000A000E2C10000E0C10000DEC1000029003A000A
:1000B0003B003C003D003E003F004000410042004C
:1000C000430044004500AE000000A800AA00A900BB
:1000D00035001E001F002000210022002300240004
:1000E0002500260027002D002E0000002A004900D0
:1000F0004A004B002B0014001A00080015001700DE
:100100001C0018000C00120013002F00300000002B
:1001100031004C004D004E00E000040016000700C6
:1001200009000A000B000D000E000F003300000054
:10013000340028000000000000000000E100000082
:100140001D001B00060019000500110010003600FC
:10015000370038000000E5000000000052000000F9
:10016000E000E300E2000000000000002C000000BE
:1001700000000000E600E70000006500E400500019
:1001800051004F0000000000000000002A2B280052
:100190000000000000000000000000000000002936
:1001A000000000002C1E3420212224342627252E76
:1001B000362D3738271E1F202122232425263333AE
:1001C000362E37381F0405060708090A0B0C0D0EDA
:1001D0000F101112131415161718191A1B1C1D2FA6
:1001E0003130232D350405060708090A0B0C0D0EC6
:1001F0000F101112131415161718191A1B1C1D2F86
:100200003130354C0000000000000000000000000C
:1002100000000000000000000000000000000000DE
:1002200000000000000000007E0F00D4FFFFFFC7A9
:10023000000000782203470061006C006100740038
:100240006500610020004F006C0064002000540035
:1002500079007000650000000C0343006C0065002D
:1002600069006E0000000403090409025B00030139
:1002700000A0FA0904000001030101000921110195
:100280000001224400070581030800010904010060
:1002900002030000000921110100012222000705CC
:1002A0008203200001070503032000010904020066
:1002B000010300000009211101000122B600070519
:1002C0008403200001120100020000000837C1165B
:1002D0009A0001010200010660FF0961A1010962A3
:1002E000150026FF00952075088102096315002678
:1002F000FF00952075089102C005010902A1018542
:10030000020901A100050919012908150025019517
:1003100008750181020501093009311581257F9594
:10032000027508810609381581257F9501750881B8
:1003300006050C0A38021581257F9501750881068E
:10034000C0C005010980A101850319012AB7001564
:100350000126B700950175108100C0050C0901A1A7
:1003600001850419012AA002150126A00295017534
:10037000108100C005010906A1018506050719E0E5
:1003800029E7150025019508750181020507190067
:1003900029EF1500250195F0750181020508190165
:1003A0002905950575019102950175039101C00517
:1003B000010906A101050719E029E71500250195A6
:1003C0000875018102950175088101050719002949
:1003D000FF150026FF009506750881000508190124
:1003E00029051500250195057501910295017503F3
:1003F0009101C00011241FBECFEFDAE0DEBFCDBFF8
:1004000004B603FE19C08091090390910A03A091DC
:100410000B03B0910C038730904BA740B04B61F4B5
:100420001092090310920A0310920B0310920C030E
:10043000E0E0F8E3099500C011E0A0E0B1E0E2EEF1
:10044000FBE402C005900D92A23BB107D9F723E06F
:10045000A2EBB1E001C01D92A930B207E1F70E9402
:1004600081100C944B25CCCD811114C0663090F4D2
:10047000423180F4E42FF0E082E1689FE00DF11D4D
:100480001124EE0FFF1FE455FF4F85919491282F03
:10049000822F089521E090E0FBCF81E0089581E074
:1004A0000895FBCF089581E0089581E00895FDCF80
:1004B000089508950895FDCF089508950895A6E03C
:1004C000B0E0E5E6F2E00C94AF2449835A839E83C2
:1004D0003091B90189819A81311117C03E8131155E
:1004E00089F0211579F0E4D4182F682F89819A8139
:1004F000BED469817A81812F0E948C0D2696E3E01B
:100500000C94CB24C5D4182FF4CFD2D469817A812E
:10051000F3CFFC01262F4081518162817381848158
:100520009581CDCFCF93DF93EC0161E0F2DFBE0187
:10053000B6DF811529F061E0CE01EBDFBE01B1DF4E
:10054000DF91CF9108950F931F93CF93DF93EC0129
:1005500060E0DFDF8C01BE01ADDFBE01C801ABDFB3
:10056000DF91CF911F910F9108950F931F93CF9318
:10057000DF93EC0161E0CDDF8C01BE0194DF8111DE
:1005800006C080E0DF91CF911F910F910895BE01C9
:10059000C8018DDF8115A9F3BE01C8010E94A4190D
:1005A000811579F3BE01C8010E94E418811549F351
:1005B000BE01C8010E945914811519F3BE01C8017A
:1005C0000E9430148115E9F2BE01C8010E9424196D
:1005D0008115B9F2BE01C8010E948C0E811589F205
:1005E000BE01C8010E949E0E811559F2BE01C801CC
:1005F0000E94B80EC7CF91E001C0990F8A95EAF723
:10060000892F94C3CF93C82F81E00C2E01C0880F8F
:100610000A94EAF70E94950B8C2FEDDFCF91089595
:1006200081E0089581E00895FBCF0895CF93C82F0E
:100630002ED38C2FF7DF8C2FF7DF8FEF94E32CE096
:10064000815090402040E1F700C00000CF91089514
:1006500081E0ECDF0C94A11D80E0E8DF0C94C51D67
:100660002CDF0E94DB1C1EC01FD028DF0C94DF1C77
:1006700081E0089581FF02C0769A089576980895E2
:10068000CF93DF93C82FF4DFD82F811511F08C2F73
:10069000F1DF8D2FDF91CF9108956E9A76980895AE
:1006A000EFCF089580E0FCCF0E94C61AF9CFCF9318
:1006B0000E94C61AC82F8091B4018C1771F0C093A4
:1006C000B4010E94711D6093B5017093B6018093CF
:1006D000B7019093B8018C2FE3DFCF910895ADE07F
:1006E000B0E0E5E7F3E00C94B024488759876A87C7
:1006F0007B878C879D87911104D71F8286E0FE013E
:1007000038969E012F5F3F4FD90101900D928A9537
:10071000E1F78D8181110CC029813A814B815C8187
:100720006D817E818F8138D62D96E2E00C94CC24A9
:10073000CE010196F7DE8111EFCFF6CFFC012481C7
:10074000213019F480819181DFC30895611521F072
:100750000E94B5150C946A160E94F515FBCFCF9335
:10076000C82F8115A9F08450813AA0F48C2F0E94E3
:10077000231181110DC08C2F0E94871B811521F040
:100780008C2F0E94241C48D78C2F0E940D1C44D70C
:10079000CF9108958C2F805E883048F481E0C1FDB0
:1007A00084E0C0FD880FC2FD82958CD6F0CF8C2FDF
:1007B000855A833030F48C2F8452990B0E94061B8B
:1007C000E7CFEC2FE85AEB3150F4F0E0EE0FFF1FCB
:1007D000E15EFE4F808191810E942D1BD9CF8C2F2D
:1007E0008D5C8331A8F661E08C2FB0DFD1CF81150D
:1007F00059F1982F9450913A18F40E94241C0CC778
:10080000982F905E983050F4982F81E091FD84E00D
:1008100090FD880F92FD82955BD6F1CF982F955A67
:10082000933020F480E090E00C94061B982F985AA7
:100830009B3120F480E090E00C942D1B982F9D5C60
:10084000933110F460E082CF08951F93CF93DF932C
:10085000182FEB0184DF209731F4812FC8DFDF915F
:10086000CF911F9108958FE99FE00197F1F700C0A4
:1008700000002197F0CF60E570E0893311F060E06F
:1008800070E0E3CF811511F01DD6C6C6089581151D
:1008900011F01ED6C1C60895A0E0B0E0E2E5F4E094
:1008A0000C94AA246C01D62FC72FFC011581068158
:1008B00002950F70FCD5E82E8115E9F0E12E111597
:1008C000D1F08C2F807F803461F08D2F805E883056
:1008D000E0F08C2F807E803221F4D230B0F0011510
:1008E000A1F08091C70282FF10C082E0B9D6DFD5A7
:1008F00091E08927E82EEC2FE295EF70C03C78F567
:10090000F0E0E35BFA4D0C949324E12CF4CF0C2F30
:100910000F70C03110F00295007F111581F00115A4
:1009200049F08D2F805E883010F0D11105C0802FE6
:10093000C9D572D68D2F40C0802FD5D5FACF8D2F37
:1009400056DF011561F08D2F805E883010F0D111D7
:1009500003C0802FBDD502C0802FCBD55DD6E1145A
:1009600009F4AEC0A0D580FDABC0F601158295D5C7
:10097000FFD1C6015DD191D504D2A2C08C2F8F705A
:10098000F82EC07FC03219F0F29480EFF822D130F7
:1009900038F079F1111509F438C00115C9F0CACF42
:1009A0008091C70282FD10C0111541F0F11419F0B9
:1009B0008F2D88D531D680E0D2DED1CF80E017DF11
:1009C000F11469F28F2DC6CF111551F0013018F4D2
:1009D0008F2D58DFC4CF09F0C2CF8F2DA6D5BFCF42
:1009E0000111BDCF8F2D53DF8F2DAAD58F2D8FD520
:1009F000B6CF111521F0063008F0B1CFE9CF0530A0
:100A000008F0ADCF8F2D43DFAACF0115D9F3D9332D
:100A100049F48FEF97EE23E0815090402040E1F7BA
:100A200000C000008D2FE3DE9ACF8C2F869586952F
:100A30008370813060F009F092CF8D2F9C2F9370DE
:100A4000111102C080E090E00E942D1B88CF8D2FF5
:100A50009C2F9370111102C080E090E00E94061B51
:100A60007ECF612F8D2F72DE7ACF8C2F837099F518
:100A7000111123C09D2F929596959770990F990FFC
:100A80004D2F4F70092E01C0440F0A94EAF78D2FA5
:100A90008071D4FF07C02FE001C0220F9A95EAF7BA
:100AA000822F8095C695C695C370842BC23079F08D
:100AB000C33079F0C13049F03FD10E94C61AF0DD51
:100AC000CDB7DEB7E8E00C94C62432D1F6CF38D1EA
:100AD000F4CF2CD1F2CF111531F1C0FFEECF9D2F05
:100AE000929596959770990F990F4D2F4F70092EEB
:100AF00001C0440F0A94EAF78D2F8071D4FF07C01C
:100B00002FE001C0220F9A95EAF7822F8095C695B3
:100B1000C695C370842BC23059F0C33059F0C13030
:100B200029F047D1CACF823040F2D9CF3ED1C5CFCC
:100B300044D1C3CF0FD1C1CFCF70111529F08C2F65
:100B400017D18D2F9FDEB9CF8D2FA1DE8C2F19D11C
:100B5000B4CFD23F31F168F4D03FC1F0D13F89F03A
:100B6000111509F43EC0011509F438C08D2FF7DDC9
:100B7000A4CFD33FE1F0D43F99F78091C70282FD23
:100B80001EC08C2F8F71111511F30FC0111539F084
:100B9000053008F092CF8C2F8F71FED08ECF0630AB
:100BA000F8CF8C2F8F711111D2CFE2D086CF1115D3
:100BB00021F08C2F8F71D5D080CFD1D07ECF111561
:100BC00029F063E08C2F8F7134D577CF81E048D541
:100BD000023008F472CF82E043D56FCF8C2F8F7133
:100BE000E4CF011571F0D93349F48FEF97EE23E08C
:100BF000815090402040E1F700C000008D2FF7DDCC
:100C00005CCF8C2F8F71A3CF0F931F93CF93DF9364
:100C1000EC01688179818D8180D18C01D2D085D021
:100C2000B801CE0139DEDF91CF911F910F91089568
:100C3000CF93DF93EC018C81811581F0CE0195DC9F
:100C400081110FC034D4811549F08D81811531F0A7
:100C50008091C70282FF02C082E002D5DF91CF916E
:100C60000895CE01D1DFCE016EDCF8CF80E090E0B8
:100C70000E94061B80E090E00E942D1B42D4CCD441
:100C80000E9483160C946A160E943B1CEFCF28D456
:100C9000FBCF282F92959F70963099F060F4925F69
:100CA0009F70923030F4203FB1F038F481E0283E5C
:100CB00038F080E008959A5FF3CF81E0243FC9F7D0
:100CC000089591E0813F09F090E081E0283E08F02E
:100CD00080E0892B089581E00895FC01248121158D
:100CE00021F08081918110D1D4CF80E00895A6E0D9
:100CF000B0E0EDE7F6E00C94B0242696E2E00C9428
:100D0000CC24A7E0B0E0E7E8F6E00C94B024279606
:100D1000E2E00C94CC240895FECF0895FDCF089511
:100D2000FADFFCDF8093E50108950895F9CF089577
:100D30009091E501892BF4CF9091E5018923F0CFC3
:100D40009091E5018927ECCFE6CF0895FDCF089576
:100D5000E2CF0895FDDFFADF8093E401089580E09B
:100D6000F9CF91E001C0990F8A95EAF7892FF2CF68
:100D700021E001C0220F8A95EAF78091E401822BDD
:100D8000E9CF21E001C0220F8A95EAF7822F8095F2
:100D90009091E4018923DECF21E001C0220F8A95E2
:100DA000EAF78091E4018227D5CF9091E401892B65
:100DB000D1CF9091E4018923CDCF9091E40189278F
:100DC000C9CF0895CF93C1E061FDC4E060FDCC0FB1
:100DD00062FDC29593E0769567959A95E1F79B0140
:100DE000220F331F260F371F420F531FFA0140E017
:100DF00050E090E06191DF019C01042E02C0369525
:100E000027950A94E2F72695220B26272C232627DE
:100E10002E934F5F5F4F4330510561F7CF91089597
:100E2000A82FA77023E0969587952A95E1F79C0156
:100E3000220F331F820F931F680F791FFB0140E0C1
:100E400050E080E0219130E00A2E02C036952795CF
:100E50000A94E2F72170042E01C0220F0A94EAF7E7
:100E6000822B4F5F5F4F4330510561F70895262F66
:100E7000963068F4823158F4682F70E082E1989FD0
:100E8000600D711D11244AEB51E0822F9BCF089514
:100E9000292F963058F4823148F490E06AEB71E0E3
:100EA00032E1239F800D911D1124BACF80E0089577
:100EB000CF92DF92FF920F931F93CF93DF936C013A
:100EC0000091E4018091E501082BC3E0D0E010E03F
:100ED000C8010C2E02C0959587950A94E2F780FD13
:100EE0000CC02197A8F7F12C8F2DDF91CF911F9186
:100EF0000F91FF90DF90CF900895FC2EB6018C2FBC
:100F000015D6019771F3F0CFCF93DF93EC01D0DFCB
:100F1000BE010CD6DF91CF9108950F931F93CF930D
:100F20008B019091B901911531F0CB01EDDFCF919B
:100F30001F910F910895811551F0CB01B9DFC82F92
:100F4000682FC80194DFB8018C2FF0D5F0CFCB010A
:100F50009FDFC82FF8CFE1E0F0E0DF0101C0AA0F6A
:100F60006A95EAF76A2FDF0101C0AA0F4A95EAF7EE
:100F70006A2B01C0EE0F2A95EAF7962F9823961355
:100F800002C08E2B0895E0958E230895242F462FBE
:100F9000682F8091E401DFDFDDCE0F931F93009176
:100FA000E6018091E701801303C01F910F9108951E
:100FB00087E0089FF0011124E851FE4F2081318124
:100FC000428153816481758186819BDE0F5F1F4F53
:100FD0000770E7CF20912002309121024091220238
:100FE0005091230260912402709125028091260283
:100FF00088CE80912602803170F48091250281157F
:1010000051F0E091E6012091E701309121024091F9
:1010100020022E1301C00895BF0187E0E89FF00170
:101020001124DF01A851BE4F14968C91149781159D
:1010300049F111968C911197831324C08C918413DC
:1010400021C015968C91159781111CC012968D9117
:101050009D91A0912202B09123028A1B9B0B883C98
:10106000910580F4809126028F7080618093260222
:10107000E251FE4F80818F708061808380E292E038
:10108000D7DD8BCF6F5F7F4FFB01E770C2CFE09161
:10109000E6019091E701E91302C080E008959F0105
:1010A00057E0E59FF0011124E851FE4F518156139E
:1010B00006C05081581303C05581541305C02F5FDB
:1010C0003F4FF901E770E7CF81E008958F929F923B
:1010D000AF92BF92DF92EF92FF920F931F93CF9345
:1010E000DF93CDB7DEB72D970FB6F894DEBF0FBEF6
:1010F000CDBF8C0186E0F801DE01189601900D92BB
:101100008A95E1F7F801F580848190E2892E92E0DA
:10111000992E90912402911117C0811509F4EFC006
:10112000F11409F42EC1C801D8DD811509F429C1D3
:1011300087E0F801D40101900D928A95E1F7C4018E
:10114000FDDA57DF47DFDBC0E080A280B380D090BC
:1011500025022091220230912302A501421B530B4C
:10116000D11409F4CFC0483C510508F09EC0811548
:1011700009F4C5C0909121029180809126028031AE
:1011800008F065C0991226C0909120029E1122C0DD
:10119000F11057C08F708061809326021BDF80E2C0
:1011A00092E046DD80912602F8018683F12C8F2D96
:1011B0002D960FB6F894DEBF0FBECDBFDF91CF9155
:1011C0001F910F91FF90EF90DF90BF90AF909F9095
:1011D0008F900895F11035C040E0692D8E2D57DFB6
:1011E00040E0692D8E2D53DFF82E8111DFCF8885E9
:1011F00099858ADE292F22952F70903450F49F70A4
:10120000223078F0911591F0F8019681903170F4C8
:10121000CECF2A5F2F70223070F0C80109DDFD2C7F
:10122000C6CF911519F0811509F4C1CF805E8830C1
:1012300008F4BDCFF2CF803F08F4B9CF815F83308F
:10124000F7CF80912602816080932602AFCF99125A
:1012500007C0909120029E1103C0F11409F473C0DD
:10126000C8013BDD811509F48CC0F11409F489C073
:1012700080912602803280F020912002309121025C
:1012800029833A83AB82BC82909124029D831E8283
:101290008F83CE010196CCDC87E0F801A0E2B2E0BA
:1012A00001900D928A95E1F74CCF909126029031F2
:1012B00088F4488559856A857B858C859D8517DDF1
:1012C00080E292E0B5DCF40187E011928A95E9F7BB
:1012D00081DE6CCF811599F0209121028181281344
:1012E000BFCF809120028E11BBCFF110B9CF968372
:1012F000C8019EDCF40187E011928A95E9F7FF248A
:10130000F39455CF483C510508F03EC08115B9F320
:10131000F114B9F1909121028181981329C0809133
:1013200020028E1125C08091260280FD18C08031D8
:10133000B0F08683807F803F39F08681982F907F40
:10134000905F8F70892B8683C80172DC87E0F8017B
:10135000A0E2B2E001900D928A95E1F7F3CE87E02A
:10136000F801A0E2B2E001900D928A95E1F7C7CFB3
:10137000C801B3DC811190CF8091260281608093F7
:101380002602C80155DCBBCF488559856A857B8517
:101390008C859D85ACDC97CFAEE0B0E0E2EDF9E066
:1013A0000C94AF24288739874A875B876C877D87B1
:1013B0008E87CE0108968ADE6C85811599F06115BD
:1013C00039F0288539854A855B857D858E8599DC50
:1013D0008091E6019091E70189133DC02E96E3E0EC
:1013E0000C94CB2487E09E01285F3F4FF9012750E2
:1013F0003109D90101900D928A95E1F7611541F308
:10140000A091E7018A2F90E08395877090E0AC016E
:101410002091E6012417150691F097E09A9FD001DC
:101420001124A851BE4F9E012F5F3F4FF90101903B
:101430000D929A95E1F74093E701AFDDC9CF27DC24
:101440001092E7011092E601E0E2F2E087E01192EB
:101450008A95E9F7BDCF17E0189FC0011124885184
:101460009E4F34DE811509F4B9CFE091E6011E9F4D
:10147000F0011124E851FE4F2081318142815381D6
:101480006481758186813DDC8091E6019091E70160
:10149000019687708093E6019BCF80914F028695DD
:1014A00086958695089580914F0287700895909152
:1014B0004F02977081E0911101C080E00895809102
:1014C0007B02089590917B02982B90937B02089564
:1014D0008095982F80917B02892380937B020895C9
:1014E00010927B02089590917A02982B90937A0241
:1014F00008958095982F80917A02892380937A02AB
:10150000089510927A0208950895FECF089590915B
:101510005002292F282329F0809589238093500297
:10152000F4CF08950895FECF089590915102292F88
:101530002823281721F0982B90935102F4CF089577
:1015400090915102292F282329F080958923809397
:101550005102E9CF089580915102811521F0109236
:10156000510280E0E0CF0895CF93C0917B0280913B
:101570007A02C82B80915102811529F0C82B0E9454
:10158000611B8111E8DF8C2FCF910895CF93DF93FA
:10159000C0910201D0910301E7DF8883C09102016D
:1015A000D091030148E050E067E472E0CE010E9470
:1015B000EB24892B59F088E0FE01A7E4B2E001900A
:1015C0000D928A95E1F7CE010E94D51ADF91CF9155
:1015D0000895CF93DF93C0910001D0910101C4DF42
:1015E0008983C0910001D091010140E250E067E29F
:1015F00072E0CE010E94EB24892B59F080E2FE01BB
:10160000A7E2B2E001900D928A95E1F7CE010E9427
:10161000E21ADF91CF9108950E94BF1A811529F037
:101620008091C60287FF01C0D4CFB0CF0895FECF0E
:1016300008959091C70292FF0EC0982F990F990FAD
:10164000990F962B90934F0293DB80914F028695D2
:1016500086958695ECCF8CCB10924F0280E0E7CF39
:1016600090914F028095892380934F02282F2770F5
:1016700059F4891749F09091C70292FF05C08695E9
:10168000869586957EDBE8CF08959091C70292FB00
:10169000222720F9281749F080FB92F99093C7027E
:1016A00086EC92E046D082E0DBCF08958091C702BD
:1016B000002482FF0394802DE8CF81E0E6CF80E014
:1016C000E4CF80E090E0BC01B8C380E090E0BC01D2
:1016D000AED3F7CFA3E0B0E0E0E7FBE00C94B0249A
:1016E00061D36CD31B82CE0103967FD381E08093BC
:1016F000E50185D380E8898384E18A83CE01019660
:101700008FD30E949019E1DF2396E2E00C94CC2461
:10171000E1CF089559C3089546D381110C94581907
:10172000089558C3089567C3089569C308956CC3A5
:10173000089576C3089587C30895A6E0B0E0E3EA6C
:10174000FBE00C94AE240E94651D8C0180917C020C
:1017500090917D028017910779F019821A820E9478
:10176000651DBC0149815A8180E090E00E946F03B1
:1017700000937C0210937D022696E4E00C94CA2428
:101780000E94711D60939A0270939B0280939C0249
:1017900090939D02609396027093970280939802B3
:1017A00090939902089508950895FDCF089508959E
:1017B000FEDFFBCF0895FECF08950895FEDFFBCF37
:1017C0008AE89EE0B1D4F0DFF3CF81E0089581E0B4
:1017D0000895FBCF0895089508950895FCDFFCDF78
:1017E000FCCF9ADF811101C093DF8EE992E099DF8F
:1017F00086EC92E09CDFB9D496DF98DA8091E40120
:10180000A5CA0E945C1D0E949B19F0D3EADF0E94CA
:101810004D03D4CFA7E0B0E0E0E1FCE00C94A024BD
:10182000D6DF811109C089DF0E94A4160E945703E8
:101830002796E2E10C94BC24E9D32EE7222E22E085
:10184000322E710110E0F701408051806280738078
:10185000812F04D31F5F163009F462C024E0E20E2A
:10186000F11C461657066806790669F380919E02B8
:1018700081FDFFD2AEDF8F8310E0812FEFD26B01AD
:101880007C01F10141905190619071901F01C4144D
:10189000D504E604F704F1F146265D2468267F248A
:1018A00000E0A12CB12C45018394C201D301882111
:1018B0009921AA21BB21892B8A2B8B2BF9F08F81AF
:1018C0008115E1F009831A830E94651D8B839C8337
:1018D00081E08D8321E0C601D70188219921AA21C9
:1018E000BB21892B8A2B8B2B09F420E049815A815B
:1018F0006B817C818D81922F0E946F030F5F880C1A
:10190000991CAA1CBB1C023181F6F101F292E292F1
:10191000D292C2921F5F163009F0AFCF31DF84CF71
:10192000461657066806790609F0A0CF7CCF0F93BC
:101930001F93CF93DF93FCD0EC01D23508F050C059
:10194000D03508F0C8C0C03ED10530F5CD3CD1053A
:1019500008F09DC0C83AD10578F4C53AD10508F021
:1019600093C0C130D105B1F1CE010497813A910500
:1019700088F1C0E0D0E02EC0CE01885A91094B9783
:10198000C0F7C85AD0E0CC0FDD1FCB5ADE4F09900C
:10199000D881C02DD4641EC0D034A8F4D03208F051
:1019A000ADC0C83ED105B0F0CE0191509F3108F7CF
:1019B0008D2F61D1082F8C2F90E0BAD0D02FDF71FE
:1019C000C82FD92B07C08C2F90E0B2D0DF70C82F62
:1019D000D92BD06ACE01DF91CF911F910F9108953D
:1019E000C03882E5D807B8F5C03682E5D80708F0D8
:1019F00056C0C03482E5D807C8F4C03282E5D807A3
:101A000008F047C08C2F8695869520E2829FC00102
:101A10001124C37021E030E002C0220F331FCA95A9
:101A2000E2F7E901C82BD92BDD68D4CF8C2F86953E
:101A30008695877020E2829FC0011124C37021E047
:101A400030E002C0220F331FCA95E2F7E901C82B2C
:101A5000D92BDC68BFCFC03C82E5D80750F48C2F6F
:101A60008F71C03AD24580F5982F84EF906AEC01CF
:101A7000B1CFCE01805C9245809708F07ACFDC2F01
:101A8000DF71C0EFD06AA6CFA497D064A3CFD06592
:101A9000A1CF8C2F8F71D82FC1EFD06A9BCF8C2F05
:101AA00086958695877020E2829FC0011124C370BD
:101AB00021E030E002C0220F331FCA95E2F7E901AE
:101AC000C82BD92BDA6886CFD6D0982F80E09F71AB
:101AD000EC01D0627FCF8C2F8F71CDD053E0CC0F33
:101AE000DD1F5A95E1F7DF70282F84FF04C090E1D5
:101AF000899F90011124C22FD0696CCF8D2F8F71D7
:101B0000BAD0082F8C2F90E013D0302F3F71282FA0
:101B1000392B3062E9015ECF462F763020F46231F6
:101B200010F4672FA5C480E090E00895F5DFFFCEA4
:101B3000803E9105D1F1C8F48133910509F481C04B
:101B400048F48932910509F471C08A32910509F48B
:101B50007FC0089589339105E1F082389105C9F07D
:101B60008533910509F45DC00895843E9105D1F156
:101B700048F4823E910531F1833E910541F181EEB9
:101B800090E00895863E9105C1F1873E9105F1F1FF
:101B900008952091C602237009F064C02091C70205
:101BA00023FF14C089E290E008952091C60220FD31
:101BB00045C03091C70230FF09C024FD24C083EE28
:101BC00090E008952091C60222FDF7CF089520915C
:101BD000C60222FD44C03091C70230FD43C024FF3D
:101BE000F5CF11C02091C70221FFF0CF8091C6022E
:101BF00084FD09C087EE90E008952091C60223FF7E
:101C0000E5CF24FFF7CF80E090E008952091C60251
:101C100023FD2BC03091C70231FFE1CF84EE90E06D
:101C200008952091C60225FFD1CFBCCF2091C602D6
:101C300025FD1EC02091C70223FFC8CF89E390E095
:101C400008952091C60226FFC1CF8AE290E0089550
:101C50002091C60226FFBACF81E390E0089582EE7C
:101C600090E0089580EE90E0089586EE90E008956B
:101C700085E390E008959091C60292FF10C041E084
:101C8000282F2471243009F040E031E0282F2871FA
:101C9000283009F030E0431711F02CE0822793FF41
:101CA00010C041E0282F2471243109F040E031E0D8
:101CB000282F2871283109F030E0431711F02CE06B
:101CC00082273091C70230FF10C051E0282F2171C8
:101CD000213009F050E041E0282F2871283009F028
:101CE00040E0541711F029E0822731FF10C041E095
:101CF000282F2171213109F040E031E0282F28718F
:101D0000283109F030E0431711F029E0822794FDD3
:101D1000877E089580E00895CF939C01205E324530
:101D2000C1E02032310538F4FB01C581C11103C087
:101D30008F710E9402038C2FCF9108959C01FB01AB
:101D40008581811599F02B359CE7390769F02C3591
:101D50009CE7390721F02A353C4721F00895A6DC9D
:101D600080E00895AADCFCCFAADCFACF81E00895D8
:101D70009C01FB018581811599F021309CE7390791
:101D800061F023309CE7390739F021153C4749F4CD
:101D90000E94280380E00895BDDC0E942C03FACF46
:101DA00081E00895089580E090E00E9409259C015B
:101DB00081E0233E3E4F09F080E0089563EE7EEF20
:101DC00080E090E00C9437256FEF7FEF80E090E0AB
:101DD0000C943725CF93DF93EC0182E090E00E94D2
:101DE00001258883DF91CF910895FC01608182E015
:101DF00090E00C941D2583E090E00C940125682F61
:101E000083E090E00C941D25CF93DF93EC0184E0F8
:101E100090E00E94092588839983DF91CF910895EE
:101E2000FC016081718184E090E00C943725AB0166
:101E3000BC018FE090E00C942F25AB01BC0183E145
:101E400090E00C942F25682F8EE090E00C941D25D7
:101E50000895FECF08950895FECF089594E0899FD8
:101E6000F0011124E052FD4F6081718182819381E4
:101E70000895089580EA8A95F1F7089500C00895BD
:101E8000F9CF0895F894E82FE295EF70F0E041A1C2
:101E90008F7021E001C0220F8A95EAF7922F90956A
:101EA000942391A392A1822F892B82A378940895E1
:101EB000CF93DF93CDE9D1E089918F3F09F0E2DF45
:101EC00081E0C33AD807C1F7CBE8D1E089918F3FD1
:101ED00009F0D8DF81E0CD39D807C1F7DF91CF9184
:101EE00008954F925F927F928F929F92AF92BF928E
:101EF000CF92DF92EF92FF920F931F93CF93DF93D6
:101F00002C01762EC62FD0E08E0103561E4FF8010D
:101F100020812F3F09F45AC0F894E22FE295EF7028
:101F2000F0E031A12F7081E001C0880F2A95EAF717
:101F3000932F982B91A392A18095892382A37894C3
:101F40009DDFEBE8F1E0A12CB12C45018394650104
:101F5000750181918F3F89F0A82FA295AF70A05E87
:101F6000B0E02C9130E08F7002C0359527958A95AE
:101F7000E2F7A401B50120FF03C040E050E0BA0140
:101F8000C42AD52AE62AF72A880C991CAA1CBB1C4D
:101F900081E0ED39F807E9F6F80180818F3F09F01B
:101FA00071DF61E0C114D104E104F10409F460E0DF
:101FB000872D66DFCC0FDD1FCC0FDD1FC2018C0F1C
:101FC0009D1FEC01C882D982EA82FB82DF91CF910A
:101FD0001F910F91FF90EF90DF90CF90BF90AF9047
:101FE0009F908F907F905F904F90089561DFE0EE1B
:101FF000F2E088E111928A95E9F7E8ECF2E088E1F5
:1020000011928A95E9F786E03DD023CFA8E1B0E0B0
:10201000ECE0F0E10C94AD24FE013196DF0188E1A3
:102020001D928A95E9F710E00E2FFF2E612F802F69
:102030009F2D57DF812F8F5F182F8630B9F748E12A
:1020400050E0602F7F2D88EC92E00E94EB2421E08D
:10205000892B71F420E046E060EE72E088EC92E0BB
:1020600012D0182FF9DE812F6896E5E00C94C92470
:1020700088E1E02FFF2DA8ECB2E001900D928A9547
:10208000E1F7E9CF0895A0E0B0E0E9E4F0E10C94D5
:10209000AA247C016B01042FC22F211579F081E065
:1020A0008093A1020E94651D80939F029093A002DD
:1020B00080E0CDB7DEB7E8E00C94C624D091A10251
:1020C000D115B1F380919F029091A0020E94F61C5D
:1020D000059770F384E0089F80011124A801B701DF
:1020E000C6010E94EB24892B31F0A801B701C6017B
:1020F0000E94F824CD2F1092A1028C2FDACF8ACB28
:1021000008950E94FF1C0E94311F5ADB0E94491F44
:1021100078DB0E94521F0E94551FF1DF0E946B1F47
:102120000E941D1E5BDBF7CF8093B2019093B30139
:1021300008950C94541B0895EDCA089580E08EDE36
:10214000862F8170089562DF8FEF96E721E081503E
:1021500090402040E1F700C0000058DFEFDF81151C
:1021600019F0EADF0C94A11D0895EDCF0895E82F32
:10217000E550EF3308F061C0F0E0E75AFA4D0C94F7
:102180009324C6DA81E0089580919E02807F809337
:102190009E0281E08093A502F5CF0E942803F2CF32
:1021A00090919E02892F8E7F90FF816080939E0286
:1021B00080FDE8CF817F80939E02E4CF90919E02C4
:1021C000892F8D7F91FF826080939E0281FFDACFFD
:1021D00080919E028160EFCF90919E02892F8B7F2C
:1021E00092FF846080939E0282FDF2CFCBCF9091CC
:1021F0009E02892F877F93FF886080939E0283FDD4
:10220000E7CFC0CF0E9447069091C602892F97FB67
:1022100087F980588093C602B5CF81E00E94960668
:102220000E944706AFCF895391E001C0990F8A956C
:10223000EAF7892FF3CF8D51F7CF80E0089580E042
:10224000089580E00895CF93C82F8091A502813032
:1022500081F0823071F18111A4C031D9823209F04C
:10226000A2C08C2FECDF811102C08C2F80DFCF91B8
:10227000089525D98232A9F38C2FE3DF811519F057
:1022800081E08170F4CFC43169F030F4CB30C1F318
:10229000C03159F080E0F5CFC93221F081E0C83378
:1022A000C9F7EFCF1092A502F5CF82E08093A50287
:1022B000E7CFCF3409F46BC068F4C83248F4CE31AC
:1022C00078F5C73009F450C0C431F9F081E0CFCFC0
:1022D000C932FBCFC13509F45CC0C23509F45BC01B
:1022E00086EFC03599F7E091A202F091A3023097F2
:1022F00069F32081982F990F990B820F911D9130CE
:102300000CF44BC08FEF8083E1CF8091A402811544
:10231000E9F21092A4021092A2021092A302D6CF68
:10232000CD51C093A402C430C9F078F48AE091E0A2
:10233000C23031F08BE091E0C33011F489E091E0DC
:102340008093A2029093A302C1CFC53051F084E0E4
:1023500091E0C630A9F31092A402B8CF88E091E0D2
:10236000EFCF85E091E0ECCF81E080930B0184E139
:1023700080930A018AE0809309018EE1809308012D
:1023800088E08093050188E2809304019FCF8AE072
:10239000AACF8FEFA8CF81E0A6CF97FFB4CF10824E
:1023A00095CF1092A50280E062CFA1E0B0E0EBED06
:1023B000F1E10C94AC247C01FC016081718182818B
:1023C00093819E012F5F3F4F890140E050E09D01C6
:1023D00094D1F70180819181A281B3810196A11DE1
:1023E000B11D80839183A283B38389812196E6E026
:1023F0000C94C82484E00895C7C00895EFC00895E0
:102400001F93CF93DF93BED0D0E0C0E010C0412F28
:102410006C2F8D2F0E9434029C01412F6C2F8D2F29
:10242000DDD01F5F123199F7CF5FC63011F010E099
:10243000EECFDF5FD43049F7DF91CF911F91089540
:102440000F931F938A019B0140E050E0BC01CA0139
:10245000EBD01F910F9108950F931F938A019B0159
:1024600040E050E0BC01CA010CD11F910F910895CA
:10247000843028F4663018F4423108F485C080E0D6
:1024800090E0089580E1089533D1CB0108950F9332
:102490001F938A019B0140E050E0BC01CA012DD18D
:1024A0001F910F9108950F931F938A019B0140E0A4
:1024B00050E0BC01CA0167D11F910F91089563D00C
:1024C00094C16F927F928F929F92BF92CF92DF9230
:1024D000EF92FF920F931F93CF93DF9300D000D022
:1024E000CDB7DEB7B82E803118F502D16150710931
:1024F000810991097E012FEFE21AF20A870121E09A
:1025000030E040E050E0F9D08981811111C0F0D075
:102510003B014C01E12CF12C6701B1101BC0C982B9
:10252000DA82EB82FC8240E0B80185ED91E17AD558
:102530000F900F900F900F90DF91CF911F910F91FF
:10254000FF90EF90DF90CF90BF909F908F907F9003
:102550006F900895C301D401C816D906EA06FB0698
:1025600039F321E030E040E050E0B601C701C5D0CA
:1025700089819FEFC91AD90AE90AF90A8111EACFBC
:10258000BA94CBCF089508950F931F93CF93DF9301
:10259000843008F56630F8F44231E8F4C42FD0E016
:1025A000CC0FDD1F94E2699FC00DD11D112498ED61
:1025B000899FC00DD11D1124CE0189960E9401254D
:1025C000082FCE018A960E940125902FDF91CF918E
:1025D0001F910F91089580E090E0F8CF1F93CF9363
:1025E000DF93122F8430E0F46630D0F44231C0F42F
:1025F000C42FD0E0CC0FDD1F24E2629FC00DD11D9F
:10260000112498ED899FC00DD11D1124632FCE0197
:1026100089960E941D25612FCE018A960E941D2554
:10262000DF91CF911F910895A0E0B0E0EAE1F3E1DE
:102630000C94A6246B017C01E8012C0D3D1D4E1D60
:102640005F1D49015A01C814D904EA04FB0429F4A6
:10265000CDB7DEB7ECE00C94C22480E6C81683E068
:10266000D806E104F10458F4C60189960E940125B8
:1026700089938FEFC81AD80AE80AF80AE4CF80E0F5
:10268000F7CF8F929F92AF92BF92CF92DF92EF924D
:10269000FF920F931F936B017C012C0D3D1D4E1D6E
:1026A0005F1D49015A01C814D904EA04FB0459F416
:1026B0001F910F91FF90EF90DF90CF90BF90AF9060
:1026C0009F908F90089580E6C81683E0D806E104B5
:1026D000F10430F4F8016081C60189960E941D253D
:1026E0000F5F1F4F8FEFC81AD80AE80AF80ADBCF2E
:1026F00067E770E080E090E008954F925F926F92FC
:102700007F928F929F92AF92BF92EF92FF920F9320
:102710001F93CF93DF934B015C0129013A01E8013C
:102720007B0187E7E81A8CEFF80A00E010E0C201AD
:10273000D301081719071A061B0678F0DF91CF910D
:102740001F910F91FF90EF90BF90AF909F908F904F
:102750007F906F905F904F900895C401D501800FD6
:10276000911FA11DB11D87379105A105B10548F441
:10277000C701800F911F0E94012589930F5F1F4F92
:10278000D6CF80E0FACFA0E0B0E0E9ECF3E10C9422
:10279000A4246B017C0149015A013801EB01C757A0
:1027A000DC4F8D01C401D501081719071A061B0655
:1027B00028F0CDB7DEB7EEE00C94C024C601D701F7
:1027C000800F911FA11DB11D87379105A105B1058E
:1027D00048F4F301E00FF11F6081CE01800F911FDB
:1027E0000E941D250F5F1F4FDDCFA0E1B0E0EBEF92
:1027F000F3E10C94A224FE013196DF0180E11D92E9
:102800008A95E9F708E010E097E7492E512C612CF2
:10281000712C29E8A22E23E0B22E9E2E8F2E62016B
:10282000730181E148165104610471041CF080E1D8
:10283000C82ED12CA601B501892D982D0E940E25F8
:10284000AC0CBD1C0D2C000C00084C185D08600879
:1028500070080150104019F76096E0E10C94BE2416
:10286000CF93DF93EB0186319C4709F50E945F0A05
:102870009D81911599F08A7A91E0811101C090E0D3
:102880009093A602811541F085E3C7D70E940C0BF7
:1028900080E0DF91CF91089589E2F7CF8091A60281
:1028A000811519F085E3D0D7F1CF89E2FCCF81E023
:1028B000F0CFCF93DF93EC01FB018581811509F403
:1028C000CBC09E0130572332310508F0ABC086ECF7
:1028D00092E00E94970BFE01E150F047E232F105D1
:1028E00020F4E856FA4D0C9493248091C60281603E
:1028F0008093C60290C08091C70288608093C7020F
:102900008AC08091C6028260F3CF8091C602846043
:10291000EFCF8091C6028860EBCF8091C7028160C3
:10292000EDCF8091C7028260E9CF8091C6028061BD
:10293000DFCF8091C6028062DBCF8091C6028064C7
:10294000D7CF0E9447068091C6028068D1CF809180
:10295000C6028C60CDCF8091C7028360CFCF8091BB
:10296000C6028E7FC5CF8091C702877FC7CF809177
:10297000C6028D7FBDCF8091C6028B7FB9CF80917B
:10298000C602877FB5CF8091C7028E7FB7CF809177
:10299000C7028D7FB3CF8091C6028F7EA9CF809171
:1029A000C6028F7DA5CF8091C6028F7BA1CF0E94EA
:1029B00047068091C6028F779BCF8091C602837FA6
:1029C00097CF8091C7028C7F99CF9091C602892FB3
:1029D0008B7F92FF8460877F92FF886089CF809190
:1029E000C702982F909590FB80F990FB81F986CFD4
:1029F0009091C602892F8F7B96FF806479CF0E94C9
:102A000047069091C602892F97FB87F9805870CFAF
:102A100081E00E949B0B86EC92E00E94990B0E9441
:102A2000470680E0DF91CF91089580E0F2CF90914A
:102A3000C602892F8F7E94FF80615ACF9091C60283
:102A4000892F8E7F90FF816053CF9091C702892F8D
:102A5000877F93FF886052CF81E0E4CF382F25EB4A
:102A60003203C001112497FF04C080589109892FB7
:102A7000089580589F4FFBCF8091AD0280FF0DC01D
:102A80006091090170E0660F771F6038710588F565
:102A90006115710581F1862F089581FF07C060914E
:102AA000090184E0689FB0011124EFCF82FF04C0C8
:102AB0006091090188E0F6CF9091AC029115B9F0D0
:102AC0006091080180910901961728F098E0899F8C
:102AD000B0011124DACF899FC001112423E0880FAF
:102AE000991F2A95E1F770E00E948024CECF68E01C
:102AF000D2CF8FE7089581E008958091AD0280FFE5
:102B00000CC06091050170E07595679575956795A6
:102B10006115710541F1862F089581FF06C060910E
:102B2000050170E075956795F3CF6091050182FD11
:102B30000BC09091AB029115A1F0609104018091BE
:102B40000501961738F0682F70E06038710500F3C2
:102B50008FE70895899FC001112470E00E948024AE
:102B6000F4CF61E0D8CF81E00895E82FED5CE33148
:102B700098F5F0E0E654FA4D0C9493247DDF8195AE
:102B80008093B102089578DFFBCF76DF8195809343
:102B9000B002089571DFFBCFB0DF8093B2020895D9
:102BA000ACDF8195FACFA9DF81958093B3020895B8
:102BB000A4DFFBCF815D990B21E001C0220F8A9534
:102BC000EAF78091AF02822B8093AF020895809143
:102BD000AD0281608093AD0208958091AD02826064
:102BE000F9CF8091AD028460F5CF4091B0028D3C69
:102BF00059F48091B10287FF0DC01092B1024115C6
:102C000059F41092AC0208C08E3C81F48091B1025C
:102C100018169CF3411581F08091B2029091B30295
:102C2000892B09F056C01092AB0208958F3C41F4F5
:102C300047FFF0CF1092B0028091B1028115E0CF32
:102C4000803D19F41416B4F3E5CF9091B202893D9A
:102C500029F41916FCF61092B202DCCF8A3D19F461
:102C600097FFD8CFF8CF9091B3028B3D29F497FF0F
:102C7000D1CF1092B302CECF8C3D19F41916CCF3FC
:102C8000C9CF982F915D983078F4815D990B21E040
:102C900001C0220F8A95EAF7822F80959091AF02AA
:102CA00089238093AF02B6CF8D3D31F48091AD0280
:102CB0008E7F8093AD02AECF8E3D21F48091AD0228
:102CC0008D7FF7CF8F3D09F0A5CF8091AD028B7F2F
:102CD000F0CF0895FAD69C019091B0028091B10294
:102CE000982B21F02093A9023093AA029091B2026E
:102CF0008091B302982B21F02093A7023093A80271
:102D00008EEA92E071C4EEEAF2E086E011928A95D2
:102D1000E9F71092AC021092AB021092AD02089546
:102D2000FC01828181110EC0838181110BC08481DD
:102D3000811108C091E08581811101C090E0892F47
:102D40008170089581E0FCCFA6E0B0E0EAEAF6E108
:102D50000C94AD2486E0EEEAF2E09E012F5F3F4F37
:102D6000D90101900D928A95E1F71092B00210926C
:102D7000B1021092B2021092B3028B819C81892B16
:102D8000022FF32E811581F08091A9029091AA0261
:102D90002DD6AC019091AC029115A1F180910A0160
:102DA0008417150608F43BC08D819E81892B89F01C
:102DB0008091A7029091A80219D6AC019091AB0224
:102DC000911509F45AC0809106018417150608F47C
:102DD00062C0602F7F2D8EEA92E065D5811104C01C
:102DE0008EEA92E09DDF811175DF86E0E02FFF2DF6
:102DF000AEEAB2E001900D928A95E1F72696E5E001
:102E00000C94C92420910B018AE0289F9001112481
:102E10002417350748F69F5F9093AC0202C09F3F8E
:102E2000D1F71B81111551F027DE91E011160CF03E
:102E30009FEF899F802D11248093B0021C81111572
:102E400051F01ADE91E011160CF09FEF899F802D52
:102E500011248093B1028091B002811509F4A4CFAE
:102E60001091B102111509F49FCFF8DD8093B002E3
:102E7000812FF4DD8093B10297CF209107018AE082
:102E8000289F900111242417350708F0A2CF9F5FD7
:102E90009093AB0202C09F3FD1F71D81111551F0F5
:102EA0002CDE91E011160CF09FEF899F802D1124EC
:102EB0008093B2028E81182F811551F01EDE91E0B1
:102EC00011160CF09FEF899F802D11248093B3027F
:102ED0008091B202811509F47CCF9091B302192F31
:102EE000911509F476CFBADD8093B202812FB6DD59
:102EF0008093B3026ECFA0E0B0E0E1E8F7E10C947C
:102F0000A924E82FF0E0EC57FE4F9491B92E282F1A
:102F100026952695269530E0F901EC5DFD4FE4906D
:102F20008770F12C082E02C0F594E7940A94E2F71A
:102F3000F901EC5EFD4FC490D12C082E02C0D5944F
:102F4000C7940A94E2F72C5F3D4FF901049110E019
:102F500002C0159507958A95E2F7C62FD0E0E0FCF0
:102F600025C0C0FE06C086EE0E94AF03CE010097CA
:102F700059F5BE018B2D0E942504CE01009761F505
:102F8000C0FC32C0E0FE06C081EE0E94F703CE0115
:102F90000097C1F500FF05C08CE20E943B0420971A
:102FA000C9F5CDB7DEB7E9E00C94C52481EE0E94E7
:102FB000AF03CE010097A9F2EFE9FFE03197F1F7F7
:102FC00000C000000197F6CFEFE9FFE03197F1F77D
:102FD00000C000000197CBCFEFE9FFE03197F1F798
:102FE00000C000000197CACF86EE0E94F703CE0111
:102FF000009741F2EFE9FFE03197F1F700C00000E0
:103000000197F6CFEFE9FFE03197F1F700C000003C
:103010000197BECF8FE99FE00197F1F700C0000054
:103020002197BDCFA0E0B0E0E8E1F8E10C94A9243D
:103030008C017B01B42EC701F80109958130A0F005
:1030400009F058C0C701F8010995C82F813089F4EB
:10305000C701F80109950E943B048B2D90E0009771
:1030600009F040C0C111E7CFCDB7DEB7E9E00C945D
:10307000C524823031F4C701F80109950E94AF03DD
:10308000ECCF833031F4C701F80109950E94F703B2
:10309000E4CF843011F7C701F8010995C82FC12C7E
:1030A000D12CDAE08C2F8053990B8A30910568F08F
:1030B000C114D10491F2EFE9FFE03197F1F700C0BC
:1030C000000081E0C81AD108F3CFDC9D9001DD9D9E
:1030D000300D1124820F931F6C01C701F80109956F
:1030E000C82FE0CFEFE9FFE03197F1F700C0000013
:1030F0000197B5CF6B2DFFDE9ECF0F931F93CF931C
:10310000DF93C42FD22FFC0185818115C9F0409334
:10311000B602DBD48093B4029093B5028C2F805E0C
:10312000883048F481E0C1FD84E0C0FD880FC2FD15
:1031300082950E944204DF91CF911F910F910895D3
:103140001091B602141333C08091B4029091B5026D
:103150004DD4883C910558F5CD2FC05E1D17C1F0A8
:10316000812F805E883048F481E011FD84E010FDFD
:10317000880F12FD82950E944704C83048F481E010
:10318000D1FD84E0D0FD880FD2FD82950E944204DB
:10319000802F0E943B0481E0D1FD84E0D0FD880FA8
:1031A000D2FD8295C83038F60E944704C4CF8C2FD8
:1031B000805E883008F0BFCF81E0C1FD84E0C0FDB3
:1031C000880FC2FD8295F0CF0F93FC01CB01E8512F
:1031D000FC47E730F10588F5E353FA4D0C9493244E
:1031E00006E221EE41EE6AE17CE787DF80E00F91A5
:1031F000089507E225EE45EE6BE17CE7F6CF06E2A7
:1032000021EE40EE68E17CE7F0CF07E225EE44EEE8
:1032100069E17CE7EACF06E221EE42EE6CE17CE771
:10322000E4CF07E225EE46EE6DE17CE7DECF08E273
:1032300021E045EE6EE17CE7D8CFFB01858181116D
:103240001092B60281E0D3CFCF93DF9387372CE77C
:10325000920739F088379C47D1F081E0DF91CF9118
:103260000895FB018581811571F019D00E94B8067F
:103270001CD0C82F17D0D82F12D04C2F6D2F0E94E2
:10328000C60780E0EBCF0BD00E94C106F1CFFB0157
:103290008581811511F006D0E9CF04D0F5CF80915A
:1032A0000E01089580910D01089580910C010895FB
:1032B000A3E0B0E0EEE5F9E10C94B024CE01019674
:1032C000AC010196BC0101960CD18B81853239F499
:1032D0008A81813121F481E09981983209F080E07E
:1032E00081702396E2E00C94CC24811521F048E211
:1032F00061E185E21CC14FEF6FEF8FEFFBCF0895C7
:103300000895CF92DF92EF92FF926B017C01F8DF7C
:10331000B601C7012BD1FF90EF90DF90CF900895B9
:10332000DFD080E0E2DF80E090E0BC01EADF68D837
:10333000C6D881E0DACFE3DF10D1E2DFB9DF811157
:1033400001C0EECF089508959C01FB018581811590
:1033500049F0A90157574038510528F4822FB1D8B8
:1033600080E0089581E008952FEFFC012083089507
:10337000FBCF089580E008951F93CF93DF93EC0176
:10338000162FF8DF811110C0E881E150E331C0F45D
:10339000F0E0EC52FA4D0C94932419828CE08A836D
:1033A000612FCE010E949910DF91CF911F91089556
:1033B00089818330C9F038F4813061F0823091F036
:1033C0008FEF8883EDCF8430D9F71A821B821C825D
:1033D0001D82E6CF86D30E9499246A837B838C83E7
:1033E0009D83DECFBAD0F7CF8A8190E0FE01863090
:1033F0009105B4F633961082118212820196F7CFAE
:103400008981823029F08530D9F68A819CDFC8CF46
:103410006A817B818C819D810E94992472DFC0CF5B
:103420004B816A8189810E94FC119C0138272327E6
:1034300032272C833D83B4CF2C813D813227232733
:1034400032274B816A8189810E94FE11A9CF0E9497
:103450000012A6CF612FCE018BDFA2CF13D88983B4
:103460009FCF12D89C0138272327322729833A83FC
:1034700097CF6B8170E089819A8198278927982757
:10348000AE014C5F5F4F03D88BCF6B8170E08981B9
:103490009A81982789279827AE014C5F5F4F03D800
:1034A0007FCF0DD87DCF0E94FA11D9CF6B8170E00C
:1034B00089819A81982789279827AE014C5F5F4FB1
:1034C0000E9420126DCF6B8170E089819A819827CC
:1034D00089279827AE014C5F5F4F0E942C1260CF66
:1034E0000895EF92FF920F931F93CF93DF937C0188
:1034F0008B01EA01892B31F085E290E00E940125E1
:10350000F70180830115110531F086E290E00E94F9
:103510000125F8018083209729F087E290E00E943E
:1035200001258883CDB7DEB7E6E00C94C824CF939D
:10353000DF93C62FD42F682F85E290E00E941D25CF
:103540006C2F86E290E00E941D256D2F87E290E0AF
:103550000E941D25DF91CF91089588E290E00E949E
:103560000125682F70E080E090E0089588E290E007
:103570000C941D258093BB029093BC020895FAD150
:10358000982F81E0913009F080E00895E091BB022E
:10359000F091BC02309739F00190F081E02D309726
:1035A00011F00995089580E00895E091BB02F09133
:1035B000BC02309731F00280F381E02D309709F0A2
:1035C00009950895E091BB02F091BC02309759F043
:1035D00024813581232B39F026E0DC012C930480F3
:1035E000F581E02D09950895E091BB02F091BC02B0
:1035F000309759F026813781232B39F022E0DC0106
:103600002C930680F781E02D09950895A3E0B0E0A2
:10361000ECE0FBE10C94B0242091B9023091BA02A5
:1036200028173907B1F08093B9029093BA02E0915C
:10363000BB02F091BC02309761F00084F185E02D6F
:10364000309739F023E029838A839B83CE0101964A
:1036500009952396E2E00C94CC24A3E0B0E0E3E3E8
:10366000FBE10C94B0242091B7023091B8022817E6
:103670003907B1F08093B7029093B802E091BB0292
:10368000F091BC02309761F00084F185E02D309715
:1036900039F024E029838A839B83CE010196099522
:1036A0002396E2E00C94CC24E091BB02F091BC02A2
:1036B000309731F00284F385E02D309709F00995B9
:1036C0000895CF93DF93C0910201D091030157DF9A
:1036D000811521F08091C60287FD11C09E012E5FE9
:1036E0003F4F96E080E09150F90140812F5F3F4FBE
:1036F00041118F5F9111F7CFDF91CF910895209104
:103700000001309101012E5F3F4F9EE1EBCFCF933F
:10371000C82F811102C080E02EC031DF811521F059
:103720008091C60287FD0FC0809102019091030134
:10373000FC013296089620812C17F9F03196E81793
:10374000F907C9F7E8CF8C2F869586958695C03FF7
:1037500010F7E0910001F0910101E80FF11D2281C5
:1037600030E0C77081E001C0880FCA95EAF72823CE
:1037700081E0232B81F2CF91089581E0FCCF9C0161
:10378000FC01329680E09FEF4081461759F0319658
:103790009F3F19F4411101C0982F8F5F8630A1F728
:1037A0009F3F09F40895290F311D97FD3A95F901BE
:1037B00062830895FC01329608962191261302C077
:1037C000DF011E92E817F907C1F70895262F269505
:1037D00026952695603F60F4820F911DFC0167706D
:1037E00021E001C0220F6A95EAF78281822B828351
:1037F0000895262F269526952695603F68F4820F1A
:10380000911DFC019DEF61FD97EF60FF959562FDB5
:1038100092958281892382830895CF93C82FAFDE4A
:103820006C2F811559F08091C60287FF07C08091E7
:10383000000190910101CADFCF91089580910201AA
:10384000909103019CDFF8CFCF93C82F98DE6C2FA7
:10385000811559F08091C60287FF07C08091000151
:1038600090910101C6DFCF9108958091020190915E
:103870000301A0DFF8CF83DE811571F08091C602CD
:1038800087FF0AC0E0910001F091010132968EE1BC
:1038900011928A95E9F70895E0910201F0910301F0
:1038A000329686E0F5CFDC01FB0111969C911197D1
:1038B0008181981322C012968C911297811519F06C
:1038C000928189131AC013968C911397811519F060
:1038D0009381891312C015968C911597811519F053
:1038E000958189130AC014969C91911521F081E06D
:1038F0002481291303C080E001C081E08170089514
:103900000895FECF08958F5F8093120160910F019B
:10391000709110018091110190911201F2CF83E01A
:103920008093120160910F0170911001809111013B
:1039300090911201E6CFE7CF089581E080931201C4
:1039400060910F017091100180911101909112010D
:10395000D8CFF3CF089591E0811101C090E090930A
:10396000110160910F0170911001809111019091EE
:103970001201C7CF809111010895809310016091C9
:103980000F01709110018091110190911201B9CF36
:1039900080911001089580930F0160910F01709143
:1039A00010018091110190911201ABCF80910F0114
:1039B000089508950895FECF089508950895F9CFC4
:1039C0000895CF93FADF0E940610F8DFC0E08C2F35
:1039D0000E942E0F672B682B692B31F4CF5FC63006
:1039E000B1F780E0CF91089581E0FCCFCF93DF93D2
:1039F000EC016BD08C1B9D0BDF91CF91089585B7A7
:103A0000806885BF85B7806885BF08951F921FB6FF
:103A10001F9211248F939F93AF93BF938091BD0208
:103A2000811113C08091F8029091F902A091FA02DD
:103A3000B091FB024196A11DB11D8093F8029093B5
:103A4000F902A093FA02B093FB02BF91AF919F914C
:103A50008F911F901FBE1F90189580910003843096
:103A600031F10E9430031092BD0288E190E020E421
:103A70000FB6F894A895809360000FBE2093600065
:103A800083B7817F846083BF83B7816083BF78946D
:103A9000889583B78E7F83BF0FB6F894A8958091E1
:103AA0006000886180936000109260000FBE0895EE
:103AB0000E9447060C94340382E084BD93E095BDD8
:103AC0009AEF97BD80936E0008952FB7F894809178
:103AD000F8029091F902A091FA02B091FB022FBF77
:103AE00008952FB7F8946091F8027091F9028091CF
:103AF000FA029091FB022FBF089578941F921FB68F
:103B00001F9211248F939F93AF93BF938091F802DC
:103B10009091F902A091FA02B091FB020196A11DC9
:103B2000B11D8093F8029093F902A093FA02B0932A
:103B3000FB02BF91AF919F918F911F901FBE1F906D
:103B4000189581E08093E00080E28093D800109285
:103B5000C9008FE19EE40197F1F700C00000A7E0E3
:103B6000B0EBCD018093090390930A03A0930B035C
:103B7000B0930C0388E19CE00FB6F894A89580936D
:103B800060000FBE90936000FFCF88E19CE00FB60D
:103B9000F894A895809360000FBE90936000FFCFCB
:103BA0009B01BA01909100039430D9F48F708093F7
:103BB000E9009FEF8091E80085FD06C085ED8A95BC
:103BC000F1F700009150B1F78091E80085FF09C03E
:103BD00040E050E0C901F3D18091E8008E778093F6
:103BE000E8000895603229F440E250E0BC0182E030
:103BF000D7CF089543E050E0BC0184E0D1CF46E048
:103C000050E0BC0184E0CCCF40E250E0BC0184E055
:103C1000C7CFCF93DF93EC01ADDE48E050E0BE01AB
:103C200081E0BEDF88E0FE01AEEBB2E001900D92D4
:103C30008A95E1F7DF91CF910895A0E2B0E0E2E24A
:103C4000FEE18EC6809100038430F1F483E080931E
:103C5000E9008091E80082FF17C08091E80090E0C1
:103C600085FF07C040E050E0BD01CE010196F3D1D1
:103C700091E08091E8008B778093E800911521F026
:103C800060E2CE01019678DBA096E2E085C68091E5
:103C9000FF02811107C066D3B6D38091E200846031
:103CA0008093E20008951092FF02089546DE81E0BD
:103CB00052CE6091FC0281E0611101C080E02FCE04
:103CC0009091000381E0943009F080E06091FC0263
:103CD00032CE42E061EC81E0C1D242E261EC84E0AC
:103CE000BDD242E261EC82E0B9D242E260EC83E014
:103CF000B5D29091000381E0943009F080E06091AA
:103D0000FC0201CE80910203893081F148F48230B7
:103D100009F497C0833009F458C0813041F0089508
:103D20008A3009F481C08B3009F469C0089580910C
:103D30000103813A09F048C08091E800877F8093B1
:103D4000E8008091050390910603892B59F060E00B
:103D500080E090E070E0CBD18091E8008B77809399
:103D6000E800089568E08EEB92E0F4CF80910103C3
:103D7000813251F580910503909106038D7F892B47
:103D800019F58091E800877F8093E8008091E80032
:103D900082FF16C02091F3008091F200922F0297CB
:103DA00031F48091F100813011F0863019F4809166
:103DB000F100E3DD8091E8008B778093E80082C218
:103DC000809100038111E2CF089580910103813A2F
:103DD000D9F78091050390910603892BA9F780916B
:103DE000E800877F8093E8008091E80080FFFCCFA7
:103DF000C1DD8093F1008091E8008E77DECF809165
:103E00000103813209F78091050390910603892B04
:103E1000D9F68091E800877F8093E80053D28091A3
:103E2000030399DD0C94470680910103813261F60A
:103E30008091E800877F8093E80044D2809104035A
:103E4000AACD80910103813A09F0BECF8091E800AC
:103E5000877F8093E8008091E80080FFFCCFA6DD9B
:103E6000C8CF84B7877F84BF0FB6F894A895809198
:103E70006000886180936000109260000FBE80E84F
:103E800090E00FB6F89480936100909361000FBEAC
:103E900060CD68D2B8D2E2EEF0E0808184608083A9
:103EA000789415C583E191E065CB8091000385305E
:103EB00029F480910003853011F0FACD0895CDDD0D
:103EC00080DD8115B1F38091FE02811591F361D0FF
:103ED0000E944706EECF08959A0140910703509142
:103EE000080300C0492F50E043305105D1F078F469
:103EF0004130510509F448C04230510571F48BE559
:103F000090E04AE652E0F90140835183089541323E
:103F10005105E9F04232510539F180E090E040E08E
:103F2000F2CF482F50E0813061F04230510561F00E
:103F3000E6E6F2E04115510581F7849190E0AF018A
:103F4000E2CFE8E5F2E0F9CFE4E3F2E0F6CF633068
:103F5000710518F7660F771FFB01E455FE4F40818E
:103F6000518189E090E0CFCF63307105B0F6FB015D
:103F7000EE0FFF1FEA55FE4F408151816D557E4F78
:103F8000FB01808190E0BFCF82E190E045EC52E000
:103F9000BACF80E189BD82E189BD09B400FEFDCFC1
:103FA0008091D8008F7D8093D8008091E00082605E
:103FB0008093E0008091E00081FDFCCF0895AF92F6
:103FC000BF92CF92DF92EF92FF921F93CF93DF9336
:103FD0007C01EB016A0195D1182F811122C0C11417
:103FE000D10439F0F60180819181C81BD90BE80E0C
:103FF000F91EA12CB12C2097A1F08091E80085FD3D
:1040000020C08091E8008E778093E800C114D1042D
:1040100099F0F601808191818A0D9B1D80839183A7
:1040200015E0812FDF91CF911F91FF90EF90DF90EE
:10403000CF90BF90AF90089564D18115F1F2182F01
:10404000F0CFF70181917F018093F10021978FEFED
:10405000A81AB80AD0CFAF92BF92CF92DF92EF9258
:10406000FF921F93CF93DF937C01EB016A0149D14B
:10407000182F811122C0C114D10439F0F6018081BA
:104080009181C81BD90BE80EF91EA12CB12C2097E9
:10409000A1F08091E80085FD20C08091E8008B7739
:1040A0008093E800C114D10499F0F60180819181D8
:1040B0008A0D9B1D8083918315E0812FDF91CF9125
:1040C0001F91FF90EF90DF90CF90BF90AF90089539
:1040D00018D18115F1F2182FF0CF8091F100F7017E
:1040E00081937F0121978FEFA81AB80AD0CFFC01E6
:1040F00080910703909108038617970720F06115B8
:10410000710561F0CB0140E0009771F441110CC0E2
:104110008091E80082FF36C080E008958091E80039
:104120008E778093E800EECF209100032115B1F146
:104130002530B1F12091E80023FD2EC02091E80048
:1041400022FDE6CF2091E80020FFDECF4091F30072
:104150002091F200342F009719F02830310558F0E3
:1041600041E02830310509F040E02091E8002E7749
:104170002093E800C9CF41914093F10001972F5F50
:104180003F4FE9CF80910003811541F0853041F028
:104190008091E80083FFBCCF81E0089582E008951C
:1041A00083E00895FC01809107039091080386172E
:1041B000970720F06115710561F0CB0140E0009791
:1041C00071F441110CC08091E80082FF37C080E09B
:1041D00008958091E8008E778093E800EECF2091DB
:1041E00000032115B9F12530B9F12091E80023FD34
:1041F0002FC02091E80022FDE6CF2091E80020FFAB
:10420000DECF4091F3002091F200342F009719F097
:104210002830310558F041E02830310509F040E000
:104220002091E8002E772093E800C9CF4491409375
:10423000F100319601972F5F3F4FE8CF8091000347
:10424000811541F0853041F08091E80083FFBBCFBC
:1042500081E0089582E0089583E00895982F9730D3
:1042600028F08F708093E90081E008959093E90031
:10427000242F762F50E0981731F07091EC002091A8
:10428000ED005091F00021FD02C09F5FE8CF30911A
:10429000EB003E7F3093EB003091ED003D7F30939B
:1042A000ED003091EB0031603093EB007093EC0047
:1042B0002093ED005093F0002091EE0027FDE5CF14
:1042C00080E008958091010387FF13C08091E8008A
:1042D00082FF06C08091E8008B778093E800089504
:1042E000809100038111F2CF089580910003811520
:1042F000D9F38091E80080FFF8CF8091E8008E77B5
:10430000ECCF2091E4003091E50095E6A9012091E1
:10431000EC00822F817020FF06C08091E80080FFB2
:1043200006C080E008952091E80022FD1AC0809127
:104330000003811589F0853089F08091EB0085FDBF
:104340000FC02091E4003091E50042175307F9F2C5
:104350009150E1F684E0089582E0089583E00895A5
:1043600081E008955FD066D0E0EEF0E0808181606A
:104370008083E8ED80818F77808319BCA7EDB0E062
:104380008C918E7F8C9380818F7E80831092FF0230
:104390000895CF93DF9346D04DD0C8EDD0E088810B
:1043A0008F77888388818068888388818F7D8883E0
:1043B00019BC109200031092FC021092FE0210929F
:1043C000FD02E0EEF0E080818B7F80838881816058
:1043D000888342E060E080E041DFE1EEF0E0808150
:1043E0008E7F8083E2EE808181608083808188601F
:1043F0008083E0EE80818E7F8083888180618883E6
:10440000DF91CF910895E8EDF0E080818F7E808389
:10441000E7ED80818160808384E082BF81E08093CA
:10442000FF02B7CFE8EDF0E080818E7F80831092AD
:10443000E20008951092DA001092E10008951F92B0
:104440000F920FB60F9211242F933F934F935F93C8
:104450006F937F938F939F93AF93BF93EF93FF934C
:104460008091E10082FF0AC08091E20082FF06C0D5
:104470008091E1008B7F8093E10028D28091DA0067
:1044800080FF18C08091D80080FF14C08091DA00AE
:104490008E7F8093DA008091D90080FF8FC080E109
:1044A00089BD82E189BD09B400FEFDCF81E0809322
:1044B0000003EDDB8091E10080FF18C08091E200F5
:1044C00080FF14C08091E2008E7F8093E200809193
:1044D000E20080618093E2008091D8008062809346
:1044E000D80019BC85E080930003E3DB8091E100F4
:1044F00084FF28C08091E20084FF24C080E189BD50
:1045000082E189BD09B400FEFDCF8091D8008F7D86
:104510008093D8008091E1008F7E8093E1008091AC
:10452000E2008F7E8093E2008091E20081608093C0
:10453000E2008091FC02811509F445C084E080937B
:104540000003BEDB8091E10083FF27C08091E20081
:1045500083FF23C08091E100877F8093E10082E0A8
:10456000809300031092FC028091E1008E7F809383
:10457000E1008091E2008E7F8093E2008091E20072
:1045800080618093E20042E060E080E067DE80913D
:10459000F00088608093F00089DBFF91EF91BF917C
:1045A000AF919F918F917F916F915F914F913F91CB
:1045B0002F910F900FBE0F901F90189519BC10925D
:1045C000000371DB77CF8091E30087FF02C083E0B7
:1045D000B6CF81E0B4CF1F920F920FB60F92112485
:1045E0001F932F933F934F935F936F937F938F937B
:1045F0009F93AF93BF93CF93DF93EF93FF93E9EE36
:10460000F0E080811091EC008F7010FB112717F9FA
:10461000182B1082C0EFD0E08881877F8883789440
:104620001CD0E9EEF0E010828881886088831F70DA
:104630001083FF91EF91DF91CF91BF91AF919F9147
:104640008F917F916F915F914F913F912F911F912A
:104650000F900FBE0F901F901895AAE2B0E0E2E312
:10466000F3E27DC181E093E0FC0101962091F1002D
:10467000208323E089309207B9F744DB8091E8007A
:1046800083FF37C080910103909102039A3088F52F
:10469000E92FF0E0E951FA4D46C1803889F08238BF
:1046A00041F5809105038F70873018F58093E900FC
:1046B0008091EB0085FB882780F91092E90006C005
:1046C0008091FE02880F9091FD02892B9091E80065
:1046D000977F9093E8008093F1001092F100809111
:1046E000E8008E7722C0811115C0809103038130CC
:1046F00001F18091E80083FF0AC08091E800877F84
:104700008093E8008091EB0080628093EB00AA9692
:10471000E3E041C1823069F780910303811579F0AC
:104720001092E9008091E800877F8093E800CADD5D
:10473000E0CF933009F080E08093FE02F1CF8091CA
:1047400005038F70282F2150263098F68093E900BA
:104750002091EB0020FFE4CF933031F48091EB0007
:1047600080628093EB00DCCF9091EB00906190939E
:10477000EB0021E001C0220F8A95EAF72093EA00BE
:104780001092EA008091EB008860EBCF8111B1CFED
:10479000809103038F77182F8091E3008078812B1D
:1047A0008093E3008091E800877F8093E8008ADDB2
:1047B0008091E80080FFFCCF8091E30080688093C7
:1047C000E30083E0111101C082E08093000391CFE8
:1047D0008058823008F08DCF8091030390910403BC
:1047E0008C3D23E0920789F583E08A838AE28983FE
:1047F0004FB7F894DE01139620E03EE051E2E32F3C
:10480000F0E050935700849120FF03C082958F7091
:104810003F5F8F708A30B8F0895C8D931D922F5F57
:10482000243169F74FBF8091E800877F8093E800CB
:104830006AE270E0CE0101965ADC8091E8008B7745
:104840008093E80056CF805DE8CF609105037091BA
:1048500006039E012F5F3F4FA9013EDBBC01892B60
:1048600009F447CF9091E800977F9093E800898101
:104870009A8198DCE2CF803809F03BCF8091E80044
:10488000877F8093E8008091FC028093F10027CF1E
:1048900081112FCF90910303923008F02ACF80919D
:1048A000E800877F8093E8009093FC020BDD809105
:1048B000FC02811529F084E0809300030ADA19CF05
:1048C0008091E30087FDF7CF81E0F6CF0895CF9385
:1048D00080910003811591F08091E900C091EC0076
:1048E0008F70C0FBCC27C7F9C82B1092E9008091CC
:1048F000E80083FDB2DECF70C093E900CF91089548
:1049000097FB072E16F4009406D077FD08D04FD001
:1049100007FC05D03EF4909581959F4F08957095C2
:1049200061957F4F0895EE0FFF1F0590F491E02DE4
:104930000994692796276927782787277827089574
:104940002F923F924F925F926F927F928F929F929F
:10495000AF92BF92CF92DF92EF92FF920F931F938D
:10496000CF93DF93CDB7DEB7CA1BDB0B0FB6F8943E
:10497000DEBF0FBECDBF09942A88398848885F847E
:104980006E847D848C849B84AA84B984C884DF80EF
:10499000EE80FD800C811B81AA81B981CE0FD11DD3
:1049A0000FB6F894DEBF0FBECDBFED010895AA1B70
:1049B000BB1B51E107C0AA1FBB1FA617B70710F00A
:1049C000A61BB70B881F991F5A95A9F7809590953C
:1049D000BC01CD010895FB01DC0104C08D91019063
:1049E000801921F441505040C8F7881B990B089555
:1049F000FB01DC0102C001900D9241505040D8F7FC
:104A00000895F999FECF92BD81BDF89A992780B596
:104A10000895A8E1B0E042E050E02FC0DC01A40F0F
:104A2000B51F4150504040F0CB01840F951F2E918F
:104A300005D041505040D8F70895262FF999FECF60
:104A400092BD81BDF89A019700B4021639F01FBAE1
:104A500020BD0FB6F894FA9AF99A0FBE08950396FE
:104A6000272FECDFEADF252FE9DF242FE7CF0196A0
:104A7000272FE4DFE2CFDC01CB01FC01F999FECF67
:104A800006C0F2BDE1BDF89A319600B40D924150D6
:104A90005040B8F70895F894FFCF87048704BE0408
:104AA000BE0415053105AF04AF0435059C05A90505
:104AB000A905CD10C410D010C2101D111D11C210B7
:104AC0001D111D11EC101D11F71002111D111D11EA
:104AD0001D111D11C2101D111D11C2101D11DE105E
:104AE0001D111D111B111B111B111B111B111B1162
:104AF0001B111B111B110D111D11CD10C1101D110A
:104B00001D111D111D111D111D111D111D111D1135
:104B10001D110D111D111D11C2101D1113111311A5
:104B200013111311131113111311131113110D116B
:104B3000AF141E15B71481148514BB148914BF1447
:104B4000CB14951417159914CF149D14D314F8147D
:104B5000A114D714FF14A714DD14E5148D14C31485
:104B60009114C714AB14E114EF14081515157B1438
:104B7000B3142515BE15C315C515CA15DA15DA15F2
:104B8000DA15DA15DA15DA15DA15DA15CC15D015C5
:104B9000D315D815E715ED15F115FF180519F018FF
:104BA000F9180B1911191719CD19D819001A101A5B
:104BB0001C1A271A2A1A2A1A2A1AE019E0192E1A78
:104BC000311A391A451A511A531A561A631A4D23B3
:104BD0007323792373237923C623E82379233B2482
:024BE000482467
:104BE20052027202280850011E0A14010302010037
:104BF200000100C81C091E041EFF1DFA1DF21DE261
:104C020000E900EA00B500B600B700CD008301CC90
:104C1200008A019201940121022302240225022624
:104C22000227022A02B300B4006F0070009F01CB7A
:104C3200019F02A002E200E900EA00B500B600B757
:104C420000CD008301CC008A01920194012102234C
:104C52000224022502260227022A02B300B4006FB0
:104C62000070009F01CB019F02A002F0F1F4F5F663
:104C7200F7676636353497969430319390373332EE
:104C82009592914422B6AF03D702F9027C029502B3
:024C9200B50269
:00000001FF
