:1000000012C3000049C3000047C3000045C30000FD
:1000100043C3000041C300003FC300003DC30000D4
:100020003BC3000039C300000C94152B0C94E12B4A
:100030000C94FA2531C300002FC300002DC300002B
:100040002BC3000029C3000027C3000025C3000004
:1000500023C300000C9471261FC300001DC30000C1
:100060001BC3000019C3000017C3000015C3000024
:1000700013C3000011C300000FC300000DC3000034
:100080000BC3000009C3000007C3000005C3000044
:1000900003C3000001C30000FFC20000FDC2000056
:1000A000FBC20000F9C20000F7C2000029003A00BC
:1000B0003B003C003D003E003F004000410042004C
:1000C000430044004500AE000000A800AA00A900BB
:1000D00035001E001F002000210022002300240004
:1000E0002500260027002D002E0000002A004900D0
:1000F0004A004B002B0014001A00080015001700DE
:100100001C0018000C00120013002F00300000002B
:1001100031004C004D004E00E000040016000700C6
:1001200009000A000B000D000E000F003300000054
:10013000340028000000000000000000E100000082
:100140001D001B00060019000500110010003600FC
:10015000370038000000E5000000000052000000F9
:10016000E000E300E2000000000000002C000000BE
:1001700000000000E600E70000006500E400500019
:1001800051004F00FD377A585A000004E6D6B446B5
:100190000200210116000000742FE5A3E006AB0168
:1001A000D45D003D888986D3DC0AE842C324925896
:1001B00042588FD8E75CA0D2616E26E888019A6722
:1001C0006C7887BC8D3709EA2F54C1A53C798586A8
:1001D00066502C5B95BB610970CE34882D098E303A
:1001E0006BCFF3E6DBEE477ECA3CB0D5B2C3F35F1C
:1001F000D8A7440177B9AEB04267E88B49AC03D5C4
:10020000114E52BBE50207F433CD0D667115F63081
:10021000B6434DA22E33206BA024AEE64571B384C5
:10022000601994F7A6A89D76421D581E4B47664656
:10023000FBE4D8F3B02233F4F798233D2ED3B2B2C7
:10024000AFE0B928081CD57722BC8C2B797138F027
:1002500091D48300498C90674DE3CC83C84350EB25
:1002600099962F012D9CB43767E2BC036A2AB9DD49
:10027000ABE32B06A061DF8749BB56A1A995A62851
:100280006DD4209BB6BE7240868F4712D1D6953B67
:100290009599E46FDA3BE5F30DED93E6DC9C242FB2
:1002A000F637B724D4AC8D55029347379E36F87E87
:1002B00064C33D2BDDD2B784D1BD7D2D48DD434CD9
:1002C000A9716E4B048C577D039E492D836BA69CB0
:1002D000DB220E1BE5D03AD67CFDB67A23FBC91C87
:1002E0000963FF20B2C0E743D3F88CD822844FAD16
:1002F00044E0C4B2BA4516523D375087BA178F6CE6
:100300001587014CD9A7E6843BC7A64A9E45E5411F
:10031000802BBC43C7AEACC0C08141345C54E2A961
:1003200087BCEDB8BC08E71FA4515CB0FABD728D64
:10033000232D556467BB5136C49F24B4F5E0582083
:100340007784CA1469C52A26E38EF2E1F6E33B4EB0
:100350005338FDE95A00E7C3B8C780F04FE92F7062
:10036000EEC18F220ED217E99B470F231F1067B3F0
:100370007E7E75430D08000020D520B941BA0A0BD6
:100380000001F003AC0D0000FA82029EB1C467FBCD
:10039000020000000004595A0000000000000000A4
:1003A0002A2B2800000000000000000000000000D0
:1003B00000000029000000002C1E342021222434DB
:1003C0002627252E362D3738271E1F2021222324AD
:1003D00025263333362E37381F0405060708090A49
:1003E0000B0C0D0E0F101112131415161718191AE5
:1003F0001B1C1D2F3130232D350405060708090A63
:100400000B0C0D0E0F101112131415161718191AC4
:100410001B1C1D2F3130354C000000000000000077
:1004200000000000000000000000000000000000CC
:100430000000000000000000000000007E0F00D45B
:10044000FFFFFFC7000000781C0376006900610011
:100450006C003A006600360034006300320062002F
:100460003300630000002203470061006C0061005C
:1004700074006500610020004F006C0064002000E3
:10048000540079007000650000000C0343006C000C
:10049000650069006E0000000403090409025B00A6
:1004A000030100A0FA090400000103010100092171
:1004B000110100012244000705810308000109041D
:1004C00001000203000000092111010001222200A5
:1004D000070582032000010705030320000109042A
:1004E0000200010300000009211101000122B600F1
:1004F00007058403200001120100020000000837F4
:10050000C1169A0001010203010660FF0961A10101
:100510000962150026FF0095207508810209631500
:100520000026FF00952075089102C005010902A16F
:100530000185020901A100050919012908150025F5
:1005400001950875018102050109300931158125E0
:100550007F95027508810609381581257F950175FB
:10056000088106050C0A38021581257F950175085A
:100570008106C0C005010980A101850319012AB7C0
:1005800000150126B700950175108100C0050C0902
:1005900001A101850419012AA002150126A00295D6
:1005A0000175108100C005010906A1018506050736
:1005B00019E029E715002501950875018102050755
:1005C000190029EF1500250195F075018102050834
:1005D0001901290595057501910295017503910190
:1005E000C005010906A101050719E029E715002545
:1005F00001950875018102950175088101050719AA
:100600000029FF150026FF009506750881000508E2
:10061000190129051500250195057501910295011E
:1006200075039101C00011241FBECFEFDAE0DEBFD9
:10063000CDBF04B603FE19C08091BA039091BB03ED
:10064000A091BC03B091BD038730904BA740B04B45
:1006500061F41092BA031092BB031092BC03109283
:10066000BD03E0E0F8E3099500C011E0A0E0B1E0CF
:10067000E8E3FEE502C005900D92AE3BB107D9F765
:1006800023E0AEEBB1E001C01D92AA3BB207E1F757
:100690000E94D3120C94682EB3CC811114C0663022
:1006A00090F4423180F4E42FF0E082E1689FE00DA5
:1006B000F11D1124EE0FFF1FE455FF4F859194911A
:1006C000282F822F089521E090E0FBCF9C019150CC
:1006D0009F31B0F4832F817034FF0AC08295807FF0
:1006E00031FD806232FD806433FF0BC08068089565
:1006F00031FD826032FD846033FF03C0886008955D
:1007000080E00895CF93DF93EB01E0DFFE010995D0
:10071000DF91CF910895CF93DF93EC01805E910933
:10072000089720F068E278E0209711F46BE176E01A
:10073000CE01E8DF8C2FECD1DF91CF910895CF93DC
:10074000DF93EC012DD2CE01805E9109089720F055
:100750006DE278E0209711F460E276E0CE01D2DF1E
:10076000DF91CF91089581E0089581E00895FBCF56
:10077000089581E0089581E0089581E00895FDCF16
:10078000089508950895FDCF089508950895A6E069
:10079000B0E0EDECF3E00C94A52D49835A839E83E1
:1007A0003091C50189819A81311117C03E8131157F
:1007B00089F0211579F078D5182F682F89819A81D1
:1007C00052D569817A81812F0E9402102696E3E03A
:1007D0000C94C12D59D5182FF4CF66D569817A8133
:1007E000F3CFFC01262F4081518162817381848186
:1007F0009581CDCFCF93DF93EC0161E0F2DFBE01B5
:10080000B4DF811529F061E0CE01EBDFBE01AFDF7F
:10081000DF91CF9108950F931F93CF93DF93EC0156
:1008200060E0DFDF8C01BE01ADDFBE01C801ABDFE0
:10083000DF91CF911F910F91089591E001C0990F21
:100840008A95EAF7892F6EC4CF93C82F81E00C2ECA
:1008500001C0880F0A94EAF70E94030E8C2FEDDF87
:10086000CF91089581E0089581E00895FBCF089528
:10087000CF93C82F08D48C2FF7DF8C2FF7DF8FEFA3
:1008800094E32CE0815090402040E1F700C000004C
:10089000CF91089581E0ECDF0C94952680E0E8DFAD
:1008A0000C94B9260F931F93CF93DF93EC018B0128
:1008B0000E946721811521F061E0C80192DFEC01FF
:1008C000B801CE0158DF811509F469C0B801CE0125
:1008D00056DF811509F463C0B801CE010E94AD2234
:1008E000811509F45CC0B801CE010E946E15811516
:1008F00009F455C0B801CE010E94FC15811509F418
:100900004EC0B801CE010E948B21811509F447C069
:10091000B801CE010E94E920811509F440C0B80158
:10092000CE010E94381C8115D1F1B801CE010E9480
:10093000691B8115A1F1B801CE010E941D2281150C
:1009400071F1B801CE010E941211811541F1B80177
:10095000CE010E94941B811511F1F801858181154A
:1009600081F0CA358CE7D80721F170F4C1308CE7EB
:10097000D807E9F0C3308CE7D807B9F0C115DC47D8
:1009800069F0C801F6DE0CC0CB358CE7D807A1F0C2
:10099000CC35DC47B1F70E94C40DF3CF7BDF80E09C
:1009A000DF91CF911F910F9108950E94F80D76DF8E
:1009B000F6CF0E94CB0DE5CF0E94CD0DE2CFCF93B5
:1009C000DF93EC0161E00DDFBE016CDFDF91CF91C1
:1009D0000895DBDE0E94CF2530C031D0D7DE0C94E5
:1009E000D325982F92959F7061F420E0982F892F3E
:1009F0008695869511F02E5F982F892F8695820F08
:100A0000089524E0F4CF81E0089581FF02C0769A32
:100A1000089576980895CF93DF93C82FF4DFD82FE9
:100A2000811511F08C2FF1DF8D2FDF91CF9108957B
:100A30006E9A76980895EFCF089580E0FCCF0E94DB
:100A4000BA23F9CFCF930E94BA23C82F8091C00157
:100A50008C1771F0C093C0010E9465266093C1019C
:100A60007093C2018093C3019093C4018C2FE3DF84
:100A7000CF910895ADE0B0E0E0E4F5E00C94A42D52
:100A8000488759876A877B878C879D87911171D7A3
:100A90001F8226E0FE013896CE010196DC0101900E
:100AA0000D922A95E1F720917603182F092F22FF46
:100AB00009C01BD7811519F082E00E949E0DFCD65B
:100AC0008111A4D78D8181110CC029813A814B817C
:100AD0005C816D817E818F816ED62D96E4E00C94D1
:100AE000C02D812F902F86DE8111EFCFF6CFFC0134
:100AF0002481213019F48081918102C40895611507
:100B000021F00E94941D0C94491E0E94D41DFBCF1D
:100B1000CF93C82F8115A9F08450813AA0F48C2F6F
:100B20000E94881781110DC08C2F0E947B24811593
:100B300021F08C2F0E941825D3D78C2F0E940125DD
:100B4000CFD7CF9108958C2F805E883048F481E014
:100B5000C1FD84E0C0FD880FC2FD8295E5D6F0CFCF
:100B60008C2F855A833030F48C2F8452990B0E943D
:100B7000FA23E7CFEC2FE85AEB3150F4F0E0EE0F18
:100B8000FF1FEF5DFE4F808191810E942124D9CF0C
:100B90008C2F8D5C8331A8F661E08C2FB0DFD1CF34
:100BA000811559F1982F9450913A18F40E94182504
:100BB00097C7982F905E983050F4982F81E091FD60
:100BC00084E090FD880F92FD8295B4D6F1CF982FE6
:100BD000955A933020F480E090E00C94FA23982FFB
:100BE000985A9B3120F480E090E00C942124982FB7
:100BF0009D5C933110F460E082CF08951F93CF93F2
:100C0000DF93182FEB0184DF209731F4812FC8DFA9
:100C1000DF91CF911F9108958FE99FE00197F1F740
:100C200000C000002197F0CF60E570E0893311F03B
:100C300060E070E0E3CF811511F076D651C70895DA
:100C4000811511F077D64CC70895A0E0B0E0EBE233
:100C5000F6E00C94A02D6C01D62FC72FFC01058166
:100C6000F6801F2D12951F7054D6E82E8115E9F0DD
:100C7000E02E0115D1F08C2F807F803461F08D2F14
:100C8000805E8830E0F08C2F807E803221F4D2307C
:100C9000B0F01115A1F08091760382FF10C082E0C0
:100CA0004DD737D691E08927E82EEC2FE295EF70EB
:100CB000C03C78F5F0E0E659F14D0C94892DE12C1B
:100CC000F4CF1C2F1F70C03110F01295107F01154A
:100CD00081F0111549F08D2F805E883010F0D11110
:100CE00005C0812F21D6FCD68D2F41C0812F30D653
:100CF000FACF8D2F55DF111561F08D2F805E883072
:100D000010F0D11103C0812F15D602C0812F26D635
:100D1000E7D6E11409F4BFC0E4D580FDBCC0F601FC
:100D20001582D9D521D2C60175D1D5D526D2B3C069
:100D30008C2F8F70F82EC07FC03219F0F29480EFA4
:100D4000F822D13040F009F43FC0011509F448C041
:100D50001115C9F0C9CF8091760382FD10C001152D
:100D600041F0F11419F08F2DDFD5BAD680E0D0DE36
:100D7000D0CF80E015DFF11461F28F2DC5CF0115C2
:100D800099F0113018F48F2D56DFC3CF19F48F2D41
:100D900012D6BFCF153009F0BCCF8F2D4CDF8F2D71
:100DA00020D68F2DEFD5B5CF113038F48F2D48DFF9
:100DB0008F2D17D68F2DF1D5ACCF09F0AACFB1D595
:100DC0008F2109F4A6CFF2CF011521F0163008F0DB
:100DD000A0CFD9CF153008F09CCF8F2D31DF99CF20
:100DE0001115D9F3D93349F48FEF97EE23E08150F1
:100DF00090402040E1F700C000008D2FD1DE89CF68
:100E00008C2F869586958370813060F009F081CFB4
:100E10008D2F9C2F9370011102C080E090E00E9402
:100E2000212477CF8D2F9C2F9370011102C080E079
:100E300090E00E94FA236DCF602F8D2F60DE69CF86
:100E40008C2F837099F5011123C09D2F9295969553
:100E50009770990F990F4D2F4F70092E01C0440FB5
:100E60000A94EAF78D2F8071D4FF07C02FE001C0EC
:100E7000220F9A95EAF7822F8095C695C695C37082
:100E8000842BC23079F0C33079F0C13049F050D1B1
:100E90000E94BA23D0DDCDB7DEB7E8E00C94BC2DBC
:100EA00043D1F6CF49D1F4CF3DD1F2CF011531F185
:100EB000C0FFEECF9D2F929596959770990F990F41
:100EC0004D2F4F70092E01C0440F0A94EAF78D2F61
:100ED0008071D4FF07C02FE001C0220F9A95EAF776
:100EE000822F8095C695C695C370842BC23059F069
:100EF000C33059F0C13029F058D1CACF823040F206
:100F0000D9CF4FD1C5CF55D1C3CF20D1C1CFCF700D
:100F1000011529F08C2F28D18D2F8DDEB9CF8D2F83
:100F20008FDE8C2F2AD1B4CFD23F31F168F4D03F7D
:100F3000C1F0D13F89F0011509F448C0111509F439
:100F400042C08D2FE5DDA4CFD33FE1F0D43F99F728
:100F50008091760382FD1EC08C2F8F71011511F3D5
:100F60000FC0011539F0153008F092CF8C2F8F711A
:100F70000FD18ECF1630F8CF8C2F8F710111D2CFB9
:100F8000F3D086CF011521F08C2F8F71E6D080CF62
:100F9000E2D07ECF011579F0A4D4843021F4C6D5F7
:100FA0008C2F8F71BFCF63E0153008F071CF8C2F7D
:100FB0008F71A3D56DCF153018F0B8D564E0F7CF99
:100FC00081E0BCD565CF8C2F8F71DACF111541F33D
:100FD000D93349F48FEF97EE23E0815090402040C1
:100FE000E1F700C000008D2FDBDD52CF0F931F9380
:100FF000CF93DF93EC01688179818D818AD18C0157
:10100000DCD08FD0B801CE0120DEDF91CF911F91CF
:101010000F910895CF93DF93EC018C81811581F0BE
:10102000CE01CDDC81110FC074D4811549F08D81C2
:10103000811531F08091760382FF02C082E07ED577
:10104000DF91CF910895CE01D1DFCE01E4DBF8CF5F
:10105000811511F07DD444C50895811511F07ED419
:101060003FC5089580E090E00E94FA2380E090E080
:101070000E9421247ED434D50E94631E0C94491E04
:101080000E942F25EFCF5ED4FBCF282F92959F7023
:10109000963099F060F4925F9F70923030F4203F68
:1010A000B1F038F481E0283E38F080E008959A5F8E
:1010B000F3CF81E0243FC9F7089591E0813F09F023
:1010C00090E081E0283E08F080E0892B089581E0DF
:1010D0000895FC012481211521F08081918110D196
:1010E000D4CF80E00895A6E0B0E0E9E7F8E00C9402
:1010F000A62D2696E2E00C94C22DA7E0B0E0E3E82E
:10110000F8E00C94A62D2796E2E00C94C22D0895E9
:10111000FECF0895FDCF0895FADFFCDF8093F10143
:1011200008950895F9CF08959091F101892BF4CF96
:101130009091F1018923F0CF9091F1018927ECCFB3
:10114000E6CF0895FDCF0895E2CF0895FDDFFADFE1
:101150008093F001089580E0F9CF91E001C0990FEC
:101160008A95EAF7892FF2CF21E001C0220F8A95F4
:10117000EAF78091F001822BE9CF21E001C0220F34
:101180008A95EAF7822F80959091F0018923DECF2E
:1011900021E001C0220F8A95EAF78091F0018227B1
:1011A000D5CF9091F001892BD1CF9091F001892377
:1011B000CDCF9091F0018927C9CF0895CF93C1E099
:1011C00061FDC4E060FDCC0F62FDC29593E07695B1
:1011D00067959A95E1F79B01220F331F260F371F62
:1011E000420F531FFA0140E050E090E06191DF01AF
:1011F0009C01042E02C0369527950A94E2F72695A5
:10120000220B26272C2326272E934F5F5F4F433038
:10121000510561F7CF910895A82FA77023E0969507
:1012200087952A95E1F79C01220F331F820F931FA8
:10123000680F791FFB0140E050E080E0219130E031
:101240000A2E02C0369527950A94E2F72170042EE3
:1012500001C0220F0A94EAF7822B4F5F5F4F4330A1
:10126000510561F70895262F963068F4823158F4BD
:10127000682F70E082E1989F600D711D112446EC8B
:1012800051E0822F9BCF0895292F963058F4823158
:1012900048F490E066EC71E032E1239F800D911DEF
:1012A0001124BACF80E00895CF92DF92FF920F937E
:1012B0001F93CF93DF936C010091F0018091F101B6
:1012C000082BC2E0D0E010E0C8010C2E02C09595BA
:1012D00087950A94E2F780FD0CC02197A8F7F12CBE
:1012E0008F2DDF91CF911F910F91FF90DF90CF90C5
:1012F0000895FC2EB6018C2F9FD6019771F3F0CF85
:10130000CF93DF93EC01D0DFBE0196D6DF91CF9172
:1013100008950F931F93CF938B019091C501911561
:1013200031F0CB01EDDFCF911F910F910895811521
:1013300051F0CB01B9DFC82F682FC80194DFB80185
:101340008C2F7AD6F0CFCB019FDFC82FF8CFE1E00A
:10135000F0E0DF0101C0AA0F6A95EAF76A2FDF010A
:1013600001C0AA0F4A95EAF76A2B01C0EE0F2A9531
:10137000EAF7962F9823961302C08E2B0895E095D6
:101380008E230895242F462F682F8091F001DFDFF0
:10139000DDCE0F931F930091F2018091F301801332
:1013A00003C01F910F91089587E0089FF001112459
:1013B000EC50FE4F208131814281538164817581DF
:1013C00086819BDE0F5F1F4F0770E7CF20912C02B5
:1013D00030912D0240912E0250912F0260913002E7
:1013E000709131028091320288CEE091F2019091A9
:1013F000F301E91302C080E008959F0157E0E59FE3
:10140000F0011124EC50FE4F5181561306C050815B
:10141000581303C05581541305C02F5F3F4FF90186
:10142000E770E7CF81E00895EF92FF920F931F934B
:10143000CF93DF9380913202803108F046C08091D3
:101440003102811509F441C08091F2019091F301BC
:101450009817D9F17C0197E0899FE0011124FE01E2
:10146000EC50FE4F84818115A9F1918180912D026C
:10147000981330C0908180912C0298132BC08581E5
:10148000811128C00281138180912E0290912F0238
:10149000081B190B60E08CE292E0A3D96CE272E0C9
:1014A0000E94431508171907A8F4809132028F7023
:1014B000806180933202C650DE4F88818F708061D8
:1014C00088838CE292E0A6DD64DFCDB7DEB7E6E08C
:1014D0000C94BE2DC70183958770B8CFADE0B0E006
:1014E000E4E7FAE00C94992D8C0186E0F801DE0126
:1014F000189601900D928A95E1F7F801F5807480B5
:101500008CE2A82E82E0B82E80913002811117C0A3
:10151000711409F4F9C0F11409F442C1C801D9DD0C
:10152000811509F43DC187E0F801D50101900D92C4
:101530008A95E1F7C501DBDA77DF48DFE5C0C280D5
:10154000D380E090310280912E0290912F024601CB
:10155000881A990AE11409F4DAC08081582E818131
:10156000682E60E08CE292E03CD96CE272E00E946E
:1015700043158816990608F09BC0711409F4C4C07D
:1015800090912D02F801218180913202803108F082
:1015900055C0291319C020912C029081291314C021
:1015A000F11046C08F708061809332020FDF8CE2B1
:1015B00092E030DD80913202F8018683F12C8F2D8C
:1015C0002D96EFE00C94B52DF11032C040E0662D61
:1015D000852D0BDF40E0662D852D07DFF82E81116C
:1015E000EDCF888599858CDE292F22952F70903438
:1015F00050F49F70223078F0911589F0F8019681AF
:10160000903168F4DCCF2A5F2F70223060F0C8017F
:1016100001DDFE2CD4CF911511F0811581F2805E91
:10162000883068F2F4CF803F50F2815F8330F9CF89
:1016300080913202816080933202C0CF291313C09F
:1016400020912C02908129130EC0F1100CC08683CA
:10165000C801E0DC87E0F801ACE2B2E001900D9255
:101660008A95E1F76ACFC80134DD811509F498C085
:10167000F11409F495C080913202803280F02091FB
:101680002C0230912D0229833A83CB82DC82909107
:1016900030029D831E828F83CE010196BBDC87E0E2
:1016A000F801ACE2B2E001900D928A95E1F744CFE7
:1016B00080913202803188F4488559856A857B851E
:1016C0008C859D8510DD8CE292E0A4DCF50187E03D
:1016D00011928A95E9F77ADE71CF7114A9F0209101
:1016E0002D02F80191812913BECF20912C02908107
:1016F0002913B9CFF110B7CF8683C8018BDCF50170
:1017000087E011928A95E9F7FF24F39458CF60E0BF
:101710008CE292E066D86CE272E00E944315881673
:10172000990608F040C0711479F3F114C9F1909151
:101730002D02F801818198132AC090912C0280819A
:10174000981325C080912E0290912F02C81AD90AB1
:1017500088ECC816D10490F49091320290FD0EC02E
:10176000903160F0892F9683907F903F09F470CF7D
:10177000982F907F905F8F70892B69CF87E0F80159
:10178000ACE2B2E001900D928A95E1F7BDCFC801BD
:10179000A0DC811184CF809132028160809332027B
:1017A000C80138DCB1CF488559856A857B858C8531
:1017B0009D8599DC8BCFAEE0B0E0E1EEFBE00C94D0
:1017C000A52D288739874A875B876C877D878E8719
:1017D000CE01089683DE6C85811599F0611539F08C
:1017E000288539854A855B857D858E8586DC809157
:1017F000F2019091F30189133DC02E96E3E00C9421
:10180000C12D87E09E01285F3F4FF9012750310924
:10181000D90101900D928A95E1F7611541F3A091EC
:10182000F3018A2F90E08395877090E0AC012091BE
:10183000F2012417150691F097E09A9FD001112428
:10184000AC50BE4F9E012F5F3F4FF90101900D92AA
:101850009A95E1F74093F3019CDDC9CF14DC109217
:10186000F3011092F201ECE2F2E087E011928A9526
:10187000E9F7BDCF17E0189FC00111248C509E4F8F
:101880002DDE811509F4B9CFE091F2011E9FF00120
:101890001124EC50FE4F20813181428153816481BB
:1018A000758186812ADC8091F2019091F301019685
:1018B00087708093F2019BCF0E94592620915E028F
:1018C00030915F02821B930B9C0181E028383341E9
:1018D00008F480E0089580915D028695869586954E
:1018E000089580915D02877008950E945926209185
:1018F0005B0230915C02821B930B8838934138F075
:1019000080915D02002482FF0394802D089580E081
:10191000089590915D02977081E0911101C080E07F
:10192000089580918B02089590918B02982B90934B
:101930008B0208958095982F80918B028923809344
:101940008B02089510928B02089580918A02089567
:1019500090918A02982B90938A0208958095982FEF
:1019600080918A02892380938A02089580938A0253
:10197000089510928A020895809161020895089551
:10198000FECF089590916002292F2823281721F077
:10199000892B80936002F4CF089590916002292FE3
:1019A000282329F08095892380936002E9CF089548
:1019B0000895FECF0895CF93C82F809161028C23A4
:1019C0008C1769F00E94592680935E0290935F0203
:1019D000809161028C2B809361028C2FEADFCF9182
:1019E000089590916102292F282379F08095892309
:1019F0008093610290E081110E94592680935E02DB
:101A000090935F0280916102D4CF0895809161022A
:101A1000811541F01092610210925E0210925F02F5
:101A200080E0C7CF0895CF93C0918B0280918A0246
:101A3000C82B80916102811551F03EDF8111E6DFF4
:101A400080916102C82B0E9455248111DFDF8C2F09
:101A5000CF910895CF93DF93C0910201D0910301FC
:101A6000E2DF8883C0910201D091030148E050E099
:101A700063E572E0CE010E94EA2D892B59F088E0DF
:101A8000FE01A3E5B2E001900D928A95E1F7CE0147
:101A90000E94C923DF91CF910895CF93DF93C09126
:101AA0000001D0910101BFDF8983C0910001D09175
:101AB000010140E250E063E372E0CE010E94EA2DB2
:101AC000892B59F080E2FE01A3E3B2E001900D9270
:101AD0008A95E1F7CE010E94D623DF91CF91089538
:101AE0000E94B323811529F08091750387FF01C0FF
:101AF000D4CFB0CF0895FECF08959091760392FF92
:101B000014C0982F990F990F990F962B90935D02FF
:101B10002BDB0E94592680935B0290935C0280919C
:101B20005D02869586958695E6CF1ECB10925D0266
:101B300010925B0210925C0280E0DDCF90915D021A
:101B40008095892380935D02282F277059F4891787
:101B500049F09091760392FF05C08695869586950B
:101B60000CDBE4CF08959091760392FB222720F9B5
:101B7000281749F080FB92F99093760385E793E06C
:101B800046D082E0DBCF089580917603002482FF67
:101B90000394802DE8CF81E0E6CF80E0E4CF80E0C1
:101BA00090E0BC019CC380E090E0BC0192D3F7CFF1
:101BB000A3E0B0E0EEEDFDE00C94A62D45D350D3AC
:101BC0001B82CE01039663D381E08093F10169D338
:101BD00080E8898384E18A83CE01019673D30E94D1
:101BE0009922E1DF2396E2E00C94C22DE1CF089523
:101BF0003DC308952AD381110C94512208953CC30A
:101C000008954BC308954DC3089550C308955AC312
:101C100008956BC30895A6E0B0E0E1E1FEE00C9406
:101C2000A42D0E9459268C0180918C0290918D02E6
:101C30008017910779F019821A820E945926BC01F7
:101C400049815A8180E090E00E943A0500938C021D
:101C500010938D022696E4E00C94C02D0E94652618
:101C60006093AA027093AB028093AC029093AD0292
:101C70006093A6027093A7028093A8029093A90292
:101C8000089508950895FDCF08950895FEDFFBCFD0
:101C90000895FECF08950895FEDFFBCF80E191E126
:101CA00095D4B4D4EFDFF2CF81E0089581E00895B8
:101CB000FBCF0895089508950895FCDFFCDFFCCF65
:101CC00099DF811101C092DF8EEA92E098DF85E70B
:101CD00093E09BDF67D795DF25DA8091F00132CA68
:101CE0000E9450260E94A522D3D3EADF0E94180545
:101CF000D3CF0E94ED210E94FE160C94371CA7E062
:101D0000B0E0E5E8FEE00C94962DD0DF81110AC02A
:101D100082DFEFDF0E94841E0E9422052796E2E107
:101D20000C94B22DC5D32EE8222E22E0322E710162
:101D300010E0F7014080518062807380812FE0D2F3
:101D40001F5F163009F462C024E0E20EF11C461653
:101D500057066806790669F38091AE0281FDDBD2F1
:101D6000A7DF8F8310E0812FCBD26B017C01F101C3
:101D700041905190619071901F01C414D504E60404
:101D8000F704F1F146265D2468267F2400E0A12CAB
:101D9000B12C45018394C201D30188219921AA2144
:101DA000BB21892B8A2B8B2BF9F08F818115E1F0D8
:101DB00009831A830E9459268B839C8381E08D833B
:101DC00021E0C601D70188219921AA21BB21892BB5
:101DD0008A2B8B2B09F420E049815A816B817C810D
:101DE0008D81922F0E943A050F5F880C991CAA1CC6
:101DF000BB1C023181F6F101F292E292D292C292C0
:101E00001F5F163009F0AFCF29DF83CF4616570684
:101E10006806790609F0A0CF7BCF0F931F93CF936D
:101E2000DF930CD1EC01D23508F050C0D03508F06A
:101E3000C8C0C03ED10530F5CD3CD10508F09DC0ED
:101E4000C83AD10578F4C53AD10508F093C0C1303D
:101E5000D105B1F1CE010497813A910588F1C0E036
:101E6000D0E02EC0CE01885A91094B97C0F7C85ACE
:101E7000D0E0CC0FDD1FC95ADE4F0990D881C02DAC
:101E8000D4641EC0D034A8F4D03208F0ADC0C83E2F
:101E9000D105B0F0CE0191509F3108F78D2F71D14F
:101EA000082F8C2F90E0CAD0D02FDF71C82FD92BEC
:101EB00007C08C2F90E0C2D0DF70C82FD92BD06A1A
:101EC000CE01DF91CF911F910F910895C03882E527
:101ED000D807B8F5C03682E5D80708F056C0C03438
:101EE00082E5D807C8F4C03282E5D80708F047C0B9
:101EF0008C2F8695869520E2829FC0011124C370A5
:101F000021E030E002C0220F331FCA95E2F7E90159
:101F1000C82BD92BDD68D4CF8C2F869586958770FA
:101F200020E2829FC0011124C37021E030E002C092
:101F3000220F331FCA95E2F7E901C82BD92BDC68C1
:101F4000BFCFC03C82E5D80750F48C2F8F71C03AC8
:101F5000D24580F5982F84EF906AEC01B1CFCE0185
:101F6000805C9245809708F07ACFDC2FDF71C0EF5C
:101F7000D06AA6CFA497D064A3CFD065A1CF8C2F71
:101F80008F71D82FC1EFD06A9BCF8C2F8695869505
:101F9000877020E2829FC0011124C37021E030E0ED
:101FA00002C0220F331FCA95E2F7E901C82BD92BD3
:101FB000DA6886CFE6D0982F80E09F71EC01D0627E
:101FC0007FCF8C2F8F71DDD053E0CC0FDD1F5A9562
:101FD000E1F7DF70282F84FF04C090E1899F900112
:101FE0001124C22FD0696CCF8D2F8F71CAD0082FCA
:101FF0008C2F90E023D0302F3F71282F392B306267
:10200000E9015ECF462F2091460330914703232BF1
:1020100081F4703F39F4603F61F48091A70390919F
:10202000A8030895763028F4623118F4672F0C94D1
:10203000C91880E090E00895E5DFEFCE803E91057D
:10204000D1F1C8F48133910509F481C048F4893293
:10205000910509F471C08A32910509F47FC0089591
:1020600089339105E1F082389105C9F085339105F6
:1020700009F45DC00895843E9105D1F148F4823E93
:10208000910531F1833E910541F181EE90E0089593
:10209000863E9105C1F1873E9105F1F108952091A9
:1020A0007503237009F064C02091760323FF14C0E8
:1020B00089E290E008952091750320FD45C030919C
:1020C000760330FF09C024FD24C083EE90E008951C
:1020D0002091750322FDF7CF08952091750322FD0D
:1020E00044C03091760330FD43C024FFF5CF11C0CA
:1020F0002091760321FFF0CF8091750384FD09C004
:1021000087EE90E008952091750323FFE5CF24FF2B
:10211000F7CF80E090E008952091750323FD2BC058
:102120003091760331FFE1CF84EE90E00895209165
:10213000750325FFD1CFBCCF2091750325FD1EC0AF
:102140002091760323FFC8CF89E390E00895209182
:10215000750326FFC1CF8AE290E0089520917503B0
:1021600026FFBACF81E390E0089582EE90E00895D3
:1021700080EE90E0089586EE90E0089585E390E08B
:1021800008959091750392FF10C041E0282F2471AB
:10219000243009F040E031E0282F2871283009F080
:1021A00030E0431711F02CE0822793FF10C041E08C
:1021B000282F2471243109F040E031E0282F2871C4
:1021C000283109F030E0431711F02CE082273091DC
:1021D000760330FF10C051E0282F2171213009F023
:1021E00050E041E0282F2871283009F040E05417D2
:1021F00011F029E0822731FF10C041E0282F217122
:10220000213109F040E031E0282F2871283109F010
:1022100030E0431711F029E0822794FD877E08956E
:1022200080E00895CF939C01205E3245C1E02032CA
:10223000310538F4FB01C581C11103C08F710E94C3
:1022400024048C2FCF910895089580E090E00E949F
:102250001F2E9C0181E0233E3E4F09F080E008954F
:1022600063EE7EEF80E090E00C944D2E6FEF7FEFF9
:1022700080E090E00C944D2ECF93DF93EC0182E050
:1022800090E00E94172E8883DF91CF910895FC0182
:10229000608182E090E00C94332E83E090E00C9417
:1022A000172E682F83E090E00C94332ECF93DF93AA
:1022B000EC0184E090E00E941F2E88839983DF91D7
:1022C000CF910895FC016081718184E090E00C94CD
:1022D0004D2EAB01BC018FE090E00C94452EAB017C
:1022E000BC0183E190E00C94452E682F8EE090E0D5
:1022F0000C94332E0895FECF08950895FECF0895CF
:1023000094E0899FF0011124E157FC4F60817181B5
:10231000828193810895089580EA8A95F1F708955E
:1023200000C00895F9CF0895F894E82FE295EF7072
:10233000F0E041A18F7021E001C0220F8A95EAF7F9
:10234000922F9095942391A392A1822F892B82A3FF
:1023500078940895CF93DF93CFE9D1E089918F3FAF
:1023600009F0E2DF81E0C53AD807C1F7CDE8D1E056
:1023700089918F3F09F0D8DF81E0CF39D807C1F7C5
:10238000DF91CF9108954F925F927F928F929F92AB
:10239000AF92BF92CF92DF92EF92FF920F931F9373
:1023A000CF93DF932C01762EC62FD0E08E010156FD
:1023B0001E4FF80120812F3F09F45AC0F894E22FF4
:1023C000E295EF70F0E031A12F7081E001C0880F3D
:1023D0002A95EAF7932F982B91A392A180958923B0
:1023E00082A378949DDFEDE8F1E0A12CB12C4501AA
:1023F00083946501750181918F3F89F0A82FA29583
:10240000AF70A05EB0E02C9130E08F7002C03595C7
:1024100027958A95E2F7A401B50120FF03C040E0AB
:1024200050E0BA01C42AD52AE62AF72A880C991C5A
:10243000AA1CBB1C81E0EF39F807E9F6F80180819E
:102440008F3F09F071DF61E0C114D104E104F104B0
:1024500009F460E0872D66DFCC0FDD1FCC0FDD1F98
:10246000C2018C0F9D1FEC01C882D982EA82FB82D7
:10247000DF91CF911F910F91FF90EF90DF90CF9060
:10248000BF90AF909F908F907F905F904F900895F6
:1024900061DFEFE8F3E088E111928A95E9F7E7E779
:1024A000F3E088E111928A95E9F786E03DD023CFE9
:1024B000A8E1B0E0EEE5F2E10C94A32DFE01319627
:1024C000DF0188E11D928A95E9F710E00E2FFF2EBB
:1024D000612F802F9F2D57DF812F8F5F182F863020
:1024E000B9F748E150E0602F7F2D87E793E00E9425
:1024F000EA2D21E0892B71F420E046E06FE873E0DB
:1025000087E793E012D0182FF9DE812F6896E5E077
:102510000C94BF2D88E1E02FFF2DA7E7B3E00190D9
:102520000D928A95E1F7E9CF0895A0E0B0E0EBE9DC
:10253000F2E10C94A02D7C016B01042FC22F211518
:1025400079F081E08093B1020E9459268093AF0216
:102550009093B00280E0CDB7DEB7E8E00C94BC2DDC
:10256000D091B102D115B1F38091AF029091B00238
:102570000E94EA25059770F384E0089F80011124EA
:10258000A801B701C6010E94EA2D892B31F0A801EC
:10259000B701C6010E94F72DCD2F1092B1028C2FEA
:1025A000DACFADCB08950E94F3250E94252876DB73
:1025B0000E943D2895DB0E9446280E944928F1DFB1
:1025C0000E945F280E94112778DBF7CF8093BE011D
:1025D0009093BF0108950C9448240895E2EBF2E033
:1025E00080E090E061E275E14FEA54E12AE534E1F0
:1025F00066837783408751872287338786879787CB
:10260000019670968830910599F70895E7CF08955F
:10261000AAE0B0E0EEE0F3E10C94A12D8C01603271
:1026200029F5FC01E181EE3008F5F0E0EA58F14DC2
:102630000C94892D88E0E5EAF1E09E012F5F3F4F81
:10264000D90101900D928A95E1F7F80131968FE159
:1026500011928A95E9F786E0F801808388E0F90114
:10266000D801149601900D928A95E1F72A96E7E039
:102670000C94BD2D84E1F801808382E08183128275
:102680001382F4CFFC0182819381A92FAA0FAA0B98
:10269000BA2F25E0880F991FAA1FBB1F2A95D1F7D3
:1026A000803E2FEF9207A207B20700F7843122E0A5
:1026B0009207A105B105D0F6AC01BD01405E5F4FA8
:1026C0006F4F7F4F453122E052076105710510F0D1
:1026D00044E152E0481B590BBC016C577E4FC801C6
:1026E0000E94E12DC3CF4FE150E06FEF70E0019603
:1026F0000E94002E80910401F8018083809146039E
:102700008183B4CF81E0809346031092470382E334
:1027100080934403109245030E945926A7CF8091CD
:102720000401F801808380914603818380914403F2
:1027300082839CCF40E250E06FEF70E00E94002E59
:1027400095CFFC018281813079F0823011F18111C5
:102750008DCF31968FE111928A95E9F788E0F801E3
:10276000808383E0878F82CF8381DA2E7E019FEF83
:10277000E91AF90AF7019A2F11929A95E9F7B70128
:1027800094D4D8018D93F70101900D92DA94E1F77A
:102790006DCF83819AE03496AE014F5F5F4FDA01CF
:1027A00001900D929A95E1F729813A81BA0121159C
:1027B0009CE7390741F44091040150910501452BF4
:1027C00011F420E030E029833A832B813C812115EC
:1027D0009CE7390741F44091040150910501452BD4
:1027E00011F420E030E02B833C832D813E812115C4
:1027F0009CE7390741F44091040150910501452BB4
:1028000011F420E030E02D833E832F81388521159F
:102810009CE7390741F44091040150910501452B93
:1028200011F420E030E02F83388741D4F801808311
:10283000D5DE1CCFA6E0B0E0E0E2F4E10C94A62DDA
:102840008093A7039093A803903230F40E948B03E7
:102850002696E2E00C94C22D80EF89838A830E9441
:1028600059268160BC0149815A8181E091E00E9432
:102870003A05EECFA6E0B0E0E0E4F4E10C94A62D3A
:102880008093A7039093A803903230F40E949F0393
:102890002696E2E00C94C22D80EF89838A830E9401
:1028A00059268160BC0149815A8181E090E00E94F3
:1028B0003A05EECF0F931F93CF93DF938C01C62F72
:1028C00062E373E08C2FF1D3892B71F4D0E0C45C08
:1028D000DC4F8881F801128218828330E9F048F4D5
:1028E000813059F0823081F0DF91CF911F910F91AB
:1028F00008958430B1F08530B9F78091320390911A
:102900003303009789F306C0809134039091350317
:10291000009799F3AFDFE8CF8091360390913703AA
:10292000F7CF8091380390913903009799F7209160
:102930003203309133038091340390913503211594
:102940003105F9F2009731F7C901E4CFCF93DF9356
:10295000EC0170DFCE018EDFDF91CF9108950F93F0
:102960001F93CF93DF938C01C62F62E373E08C2F0C
:102970009CD3892B09F058C0EC2FF0E0D8011296B7
:102980008C911297E45CFC4F8130A9F415968C91E0
:1029900082FD4FC080FF4DC082E080838091340370
:1029A000909135030097C1F48091320390913303E5
:1029B0000097D1F111C08230A9F5D80115968C91FC
:1029C00082FD26C080FD0AC083E0808380913603AB
:1029D000909137030097F1F02DDF26C084E08083CB
:1029E00080913803909139030097B1F780913203B9
:1029F00090913303009701F1A9DF80913403909106
:102A00003503009749F78091320390913303E4CF67
:102A100085E080838091320390913303009721F009
:102A200095DFF1CF86E08083DF91CF911F910F91E9
:102A3000089581E08083B8CF80913403909135036D
:102A4000B7CF0F931F93CF93DF938C01862F62E351
:102A500073E02BD3892B91F4C0913203D0913303CF
:102A6000209761F0F8018281833039F4CE016EDF66
:102A7000CE016CDFCE016ADF01C0E0F7DF91CF91BC
:102A80001F910F910895AAE0B0E0E9E4F5E10C94FC
:102A9000A62D392F375531F088EC90E02A96E2E0E8
:102AA0000C94C22D9E012F5F3F4FB901FED2892B9E
:102AB00099F789859A85F2CF88E090E0089588306B
:102AC000910548F482959295907F9827807F98276A
:102AD0008E549D4F089580E090E00895CF93DF934A
:102AE000FB01258121112EC09755EC01D1112AC07F
:102AF00062E373E0DAD2892B29F5CE0182959295B3
:102B0000907F9827807F9827FC01EE54FD4F22810B
:102B10002130E1F42091320330913303232B91F0E3
:102B20002091340330913503232B61F0209136033B
:102B3000309137034091380350913903242B352BC2
:102B4000232B61F081E0DF91CF9108952230D1F7FE
:102B50002091360330913703232BA1F3FC01E95474
:102B6000FD4F20812E7F20838E549D4F0E94452152
:102B7000E9CF3EC8089580E0C3DB862F81700895B9
:102B800097DC8FEF96E721E0815090402040E1F7FD
:102B900000C000008DDCEFDF811519F0EADF0C9436
:102BA00095260895EDCF08959C018D329105F9F099
:102BB00088F48832910548F44E97E0F424503109A6
:102BC0002A313105A0F080E0089581E02A323105F4
:102BD000D1F7089581E02D3292E0390709F080E0C5
:102BE00091E02C34310509F090E0892B089582E0C2
:102BF0000E94A80C81E00895EF92FF920F931F931B
:102C0000CF93DF93EC017B01C3378CE7D80751F4F6
:102C1000FB018581811103D180E0CDB7DEB7E6E00D
:102C20000C94BE2DC23A82E5D80791F150F4CE0142
:102C30009052903208F1C13ED10551F1C53ED10507
:102C400003C0C23B82E5D807D9F585EE90E08770D6
:102C500001E010E002C0000F111F8A95E2F7B0D02A
:102C6000909148038115E1F0F7018581811599F074
:102C7000902B90934803D0CFFB018681803100F5E3
:102C80008D2F8F7190E08230910511F04297DCCF4B
:102C900081EE90E0DCCF0095092300934803BCCF80
:102CA000892F802369F0802F8095892380934803A2
:102CB000802F0E949A0CF7018581811509F4ACCF11
:102CC0000E94910C182F0E94BC0C082F79D0811102
:102CD00002C081E0A2CF6BD0F70185818115C9F3D5
:102CE000102B1D7909F055C0D03580F4D03408F090
:102CF00056C0C63ED10569F3CE0190529032D8F449
:102D00008681803108F43EC0D0E015C0C03E82E527
:102D1000D80750F5C03C82E5D807D8F6C03A82E51E
:102D2000D807E0F4C03682E5D80798F6CE01925570
:102D30008034910570F20E94B90CCE0135DF811507
:102D400041F180914803811531F00E94A50C92E079
:102D500089270E94B60C0E94700DBBCFC43B82E550
:102D6000D80709F4B6CFE7CFC9378CE7D80730F4D6
:102D7000C7378CE7D80708F0ACCFDDCFCB378CE76F
:102D8000D807EFCF8D2F8F71843109F4A2CF863110
:102D900059F028D0809148030E94940C9ACF8681E4
:102DA000803108F0B1CF95CFC6EED2E1C4CF0E94FA
:102DB000592688579C4E8093490390934A0308955F
:102DC00080914B030895089580914B03811109C0B0
:102DD0000E94A20C0E94060DEADF81E080934B0363
:102DE000F2CF089580914B03811539F082E20E9461
:102DF0002D0810924B0380E0E6CF089580914B039D
:102E0000811561F00E9459262091490330914A03AF
:102E1000821B930B8F3F9F4708F4E4CF0895809166
:102E20004B03811509F0DECFCFCFE82FE550EF330C
:102E300008F068C0F0E0EC57F14D0C94892D0E9429
:102E4000F60D81E008958091AE02807F8093AE02FE
:102E500081E080934F03F5CF8091040190910501AB
:102E6000892B79F30E944A04ECCF9091AE02892F0E
:102E70008E7F90FF81608093AE0280FDE2CF817FE4
:102E80008093AE02DECF9091AE02892F8D7F91FFAD
:102E900082608093AE0281FFD4CF8091AE028160C8
:102EA000EFCF9091AE02892F8B7F92FF8460809349
:102EB000AE0282FDF2CFC5CF9091AE02892F877FFF
:102EC00093FF88608093AE0283FDE7CFBACF0E9464
:102ED000430890917503892F97FB87F98058809359
:102EE0007503AFCF81E00E9492080E944308A9CFEA
:102EF000895391E001C0990F8A95EAF7892FF3CFA2
:102F00008D51F7CF80E0089580E0089580E0089526
:102F1000CF93C82F80914F03813089F0823081F1A7
:102F20008111A6C00E94910C823209F0A3C08C2F9F
:102F3000EBDF811102C08C2F78DFCF9108950E94C2
:102F4000910C8232A1F38C2FE1DF811519F081E021
:102F50008170F3CFC43169F030F4CB30C1F3C031AC
:102F600059F080E0F5CFC93221F081E0C833C9F7CC
:102F7000EFCF10924F03F5CF82E080934F03E7CF5E
:102F8000CF3409F46BC068F4C83248F4CE3178F518
:102F9000C73009F450C0C431F9F081E0CECFC93256
:102FA000FBCFC13509F45CC0C23509F45BC086EFC4
:102FB000C03599F7E0914C03F0914D03309769F3D8
:102FC0002081982F990F990B820F911D91300CF44D
:102FD0004BC08FEF8083E1CF80914E038115E9F2E2
:102FE00010924E0310924C0310924D03D6CFCD5148
:102FF000C0934E03C430C9F078F48CE091E0C23045
:1030000031F08DE091E0C33011F48BE091E08093DA
:103010004C0390934D03C1CFC53051F086E091E051
:10302000C630A9F310924E03B8CF8AE091E0EFCFFB
:1030300087E091E0ECCF81E080930D0184E1809303
:103040000C018AE080930B018EE180930A0188E0F5
:103050008093070188E2809306019FCF8AE0AACF80
:103060008FEFA8CF81E0A6CF97FFB4CF108295CF86
:1030700010924F0380E061CFA1E0B0E0E2E4F8E11C
:103080000C94A42D9E012F5F3F4F890140E050E03A
:103090009D0145D289812196E4E00C94C02D83E006
:1030A000089579C10895A1C10895EBC20895FDC2A4
:1030B0000895CF92DF92FF920F931F93CF93DF93E8
:1030C000CDB7DEB72A970FB6F894DEBF0FBECDBFDF
:1030D000C0900401D090050181E08093040110921A
:1030E000050157D100E010E011C04F2D612F802F56
:1030F0000E944D039C014F2D612F802F76D1F394B8
:103100008F2D823191F71F5F163011F0F12CEDCF2A
:103110000F5F033041F719821A821B821C821D82C5
:103120001E821F82188688EC89871A8610E0CE01DD
:103130000196BC01812FBBDF1F5F1830C1F7C09221
:103140000401D09205012A960FB6F894DEBF0FBE97
:10315000CDBFDF91CF911F910F91FF90DF90CF9066
:1031600008950F931F938A019B0140E050E0BC013A
:10317000CA0161D11F910F9108950F931F938A0186
:103180009B0140E050E0BC01CA0182D11F910F9128
:103190000895833028F4663018F4423108F4FBC0F7
:1031A00080E090E0089580E10895B4D1CB010895C6
:1031B0000F931F938A019B0140E050E0BC01CA01BC
:1031C000AED11F910F9108950F931F938A019B0118
:1031D00040E050E0BC01CA01E8D11F910F91089571
:1031E000D9D015C2A4E0B0E0E8EFF8E10C949B2D33
:1031F000182F803108F0C9C08DD161507109810943
:1032000091093ADF8111C1C085D14B015C01E12CEC
:10321000F12C670111113AC08E010F5F1F4FF801A9
:1032200084E011928A95E9F7B601C70125DF898309
:10323000811509F4AAC0460157019FEF891A990A1E
:10324000A90AB90A813009F09CC0B401C50114DF94
:103250008A83811509F499C0A601B7014E5F5F4FBB
:103260006F4F7F4F982F9150933038F583E0C80E01
:10327000D11CE11CF11C46015701CB01BA01FCDE57
:103280008B838115B9F0C80132D714C08C149D040A
:10329000AE04BF0409F479C0B601C701EDDE9FEFAB
:1032A000C91AD90AE90AF90A8111F0CF1150B2CF2F
:1032B0004A015B0164017501B2CF982F955093309C
:1032C00078F54601570183E0880E911CA11CB11CC2
:1032D000CB01BA01D1DE8B83811561F384E0C80E86
:1032E000D11CE11CF11CB401C501C6DE8C83811523
:1032F00081F08B819C8181302FEF920710F0982F05
:1033000080E02A81263041F0273041F0253009F451
:103310001DDB46015701CECF8DDAFBCFABDAF9CFFB
:10332000843031F6CB01BA01A7DE782EB601C70191
:103330006D5F7F4F8F4F9F4F9FDE711431F181156D
:1033400021F194E0C90ED11CE11CF11C460157018A
:10335000282F2150330B4FEF429FC001439F900D08
:103360001124272D2150330B820F931F009709F44E
:10337000A1CF0197EFE9FFE03197F1F700C000001E
:10338000F5CF60E0C801A0D695CF2496EDE00C946F
:10339000B72D089508950F931F93CF93DF93833034
:1033A00008F56630F8F44231E8F4C42FD0E0CC0FD1
:1033B000DD1F94E2699FC00DD11D112498ED899FF6
:1033C000C00DD11D1124CE0189960E94172E082F01
:1033D000CE018A960E94172E902FDF91CF911F91D8
:1033E0000F91089580E090E0F8CF1F93CF93DF9383
:1033F000122F8330E0F46630D0F44231C0F4C42F91
:10340000D0E0CC0FDD1F24E2629FC00DD11D11243E
:1034100098ED899FC00DD11D1124632FCE0189968F
:103420000E94332E612FCE018A960E94332EDF91A7
:10343000CF911F910895A0E0B0E0E1E2FAE10C9491
:103440009C2D6B017C01E8012C0D3D1D4E1D5F1D67
:1034500049015A01C814D904EA04FB0429F4CDB780
:10346000DEB7ECE00C94B82D88E8C81682E0D806E8
:10347000E104F10458F4C60189960E94172E89933D
:103480008FEFC81AD80AE80AF80AE4CF80E0F7CF2D
:10349000A0E0B0E0EEE4FAE10C949A2D6B017C011F
:1034A00049015A01380188E8C81682E0D806E104CB
:1034B000F104A0F488E892E08C199D09AE09BF09D7
:1034C00088159905AA05BB0548F0EB01A99600E00F
:1034D00010E0081519051A041B0428F0CDB7DEB753
:1034E000EEE00C94B62DC601D701800F911FA11DEF
:1034F000B11D88389240A105B10548F4F301E00FF1
:10350000F11F6081CE01800F911F0E94332E0F5F4B
:103510001F4FDFCF6FEF70E080E090E008954F9293
:103520005F926F927F928F929F92AF92BF92EF9233
:10353000FF920F931F93CF93DF934B015C012901FF
:103540003A01E8017B018FEFE81A8CEFF80A00E0FE
:1035500010E0C201D301081719071A061B0678F0FC
:10356000DF91CF911F910F91FF90EF90BF90AF909F
:103570009F908F907F906F905F904F900895C401BF
:10358000D501800F911FA11DB11D8F3F9105A10590
:10359000B10548F4C701800F911F0E94172E89932F
:1035A0000F5F1F4FD6CF80E0FACFA0E0B0E0EBED89
:1035B000FAE10C949A2D6B017C0149015A01380102
:1035C000EB01CF5FDC4F8D01C401D501081719074E
:1035D0001A061B0628F0CDB7DEB7EEE00C94B62D28
:1035E000C601D701800F911FA11DB11D8F3F91050D
:1035F000A105B10548F4F301E00FF11F6081CE0190
:10360000800F911F0E94332E0F5F1F4FDDCFA0E16F
:10361000B0E0EDE0FBE10C94982DFE013196DF0166
:1036200080E11D928A95E9F700E110E0612C712C90
:1036300023014A9421E0A22E23E0B22E9E2E8F2E4B
:103640006201730181E148165104610471041CF0A8
:1036500080E1C82ED12CA601B501892D982D0E949C
:10366000242EAC0CBD1C0D2C000C00084C185D0861
:10367000600870080150104019F76096E0E10C9462
:10368000B42D9B01883070F49AE0899FB001112419
:103690006F547D4F4AE050E0C9010E94072E80E040
:1036A00090E008958FEF9FEF08959B01883070F4AC
:1036B0009AE0899FB00111246F547D4F4AE050E099
:1036C000C9010E94512E80E090E008958FEF9FEF96
:1036D0000895CF93DF93EB0186319C4719F50E9443
:1036E000910C9D819115A1F08A7A91E0811101C020
:1036F00090E090935003811549F085E30E940125E5
:103700000E94700D80E0DF91CF91089589E2F6CF9D
:1037100080915003811521F085E30E941825F0CF98
:1037200089E2FBCF81E0EFCF0F931F93CF93DF931D
:10373000EC018B0165D0809151039091F001292F0C
:1037400020953FEF50E028233523232B21F08923B8
:103750008093510366D0CB378CE7D80759F4F80132
:103760008581811529F08091F0010E94F1045BD0E0
:1037700080E00DC0C03482E5D80728F5C03282E56C
:10378000D80730F5D03540F4D03468F581E0DF91CA
:10379000CF911F910F910895CE0190559230B0F7BF
:1037A00085E0D695C7958A95E1F7CF708C2F29D003
:1037B000811561F3F8018581811113C00E94A20C6B
:1037C0000E94700DD5CFCE01805C92458097F0F6B7
:1037D000CF718C2F16D08115C9F2F8018581811522
:1037E00039F28C2FC4CFF8018681803178F685813B
:1037F0008111CCCF8D2F8F7004D091E08927C7CF56
:1038000008952091510330E041E001C0440F8A95B2
:10381000EAF7242381E0232B09F480E0089581E076
:103820000895FDCF08951F93CF93DF93182FC1E024
:1038300001C0CC0F8A95EAF7809151038C2399F44B
:103840000E946B0C811302C00E94960D812F0E9472
:10385000B408809151038C2780935103E2DFDF91FC
:10386000CF911F910895812F0E94BD08F2CF089536
:10387000CF93DF93EC01FB018581811509F4CBC067
:103880009E0130572332310508F0ABC085E793E045
:103890000E94050EFE01E150F047E232F10520F4EE
:1038A000ED53F14D0C94892D8091750381608093C7
:1038B000750390C0809176038860809376038AC0F8
:1038C000809175038260F3CF809175038460EFCFA0
:1038D000809175038860EBCF809176038160EDCF96
:1038E000809176038260E9CF809175038061DFCF9C
:1038F000809175038062DBCF809175038064D7CFA0
:103900000E944308809175038068D1CF8091750330
:103910008C60CDCF809176038360CFCF809175038B
:103920008E7FC5CF80917603877FC7CF8091750347
:103930008D7FBDCF809175038B7FB9CF809175034B
:10394000877FB5CF809176038E7FB7CF8091760346
:103950008D7FB3CF809175038F7EA9CF8091750342
:103960008F7DA5CF809175038F7BA1CF0E944308E7
:10397000809175038F779BCF80917503837F97CF5D
:10398000809176038C7F99CF90917503892F8B7FDF
:1039900092FF8460877F92FF886089CF8091760351
:1039A000982F909590FB80F990FB81F986CF9091AC
:1039B0007503892F8F7B96FF806479CF0E9443081F
:1039C00090917503892F97FB87F9805870CF81E01C
:1039D0000E94090E85E793E00E94070E0E944308AB
:1039E00080E0DF91CF91089580E0F2CF9091750350
:1039F000892F8F7E94FF80615ACF90917503892F14
:103A00008E7F90FF816053CF90917603892F877FBF
:103A100093FF886052CF81E0E4CF382F25EB32034B
:103A2000C001112497FF04C080589109892F08957F
:103A300080589F4FFBCF8091580380FF0DC060914D
:103A40000B0170E0660F771F6038710588F561150E
:103A5000710581F1862F089581FF07C060910B01E8
:103A600084E0689FB0011124EFCF82FF04C0609111
:103A70000B0188E0F6CF909157039115B9F0609152
:103A80000A0180910B01961728F098E0899FB001F8
:103A90001124DACF899FC001112423E0880F991FD8
:103AA0002A95E1F770E00E94762DCECF68E0D2CF64
:103AB0008FE7089581E008958091580380FF0CC03E
:103AC0006091070170E0759567957595679561152B
:103AD000710541F1862F089581FF06C060910701AD
:103AE00070E075956795F3CF6091070182FD0BC07B
:103AF000909156039115A1F0609106018091070104
:103B0000961738F0682F70E06038710500F38FE782
:103B10000895899FC001112470E00E94762DF4CF92
:103B200061E0D8CF81E00895E82FED5CE33198F5AE
:103B3000F0E0EB51F14D0C94892D7DDF8195809360
:103B40005C03089578DFFBCF76DF819580935B037C
:103B5000089571DFFBCFB0DF80935D030895ACDF84
:103B60008195FACFA9DF819580935E030895A4DF44
:103B7000FBCF815D990B21E001C0220F8A95EAF706
:103B800080915A03822B80935A03089580915803A1
:103B90008160809358030895809158038260F9CF23
:103BA000809158038460F5CF40915B038D3C59F4BC
:103BB00080915C0387FF0DC010925C03411559F49E
:103BC0001092570308C08E3C81F480915C03181654
:103BD0009CF3411581F080915D0390915E03892BE8
:103BE00009F056C01092560308958F3C41F447FFE8
:103BF000F0CF10925B0380915C038115E0CF803D94
:103C000019F41416B4F3E5CF90915D03893D29F4BE
:103C10001916FCF610925D03DCCF8A3D19F497FF6C
:103C2000D8CFF8CF90915E038B3D29F497FFD1CF89
:103C300010925E03CECF8C3D19F41916CCF3C9CF88
:103C4000982F915D983078F4815D990B21E001C047
:103C5000220F8A95EAF7822F809590915A03892343
:103C600080935A03B6CF8D3D31F4809158038E7FF7
:103C700080935803AECF8E3D21F4809158038D7F01
:103C8000F7CF8F3D09F0A5CF809158038B7FF0CF00
:103C900008950E9459269C0190915B0380915C03DA
:103CA000982B21F0209354033093550390915D039A
:103CB00080915E03982B21F020935203309353039D
:103CC00089E593E085C5E9E5F3E086E011928A9500
:103CD000E9F7109257031092560310925803089573
:103CE000FC01828181110EC0838181110BC084810E
:103CF000811108C091E08581811101C090E0892F78
:103D00008170089581E0FCCFA6E0B0E0EAE8FEE132
:103D10000C94A32D86E0E9E5F3E09E012F5F3F4F71
:103D2000D90101900D928A95E1F710925B031092F0
:103D30005C0310925D0310925E038B819C81892B42
:103D4000022FF32E811581F0809154039091550339
:103D500041D7AC01909157039115A1F180910C01CD
:103D60008417150608F43BC08D819E81892B89F04C
:103D700080915203909153032DD7AC01909156033B
:103D8000911509F45AC0809108018417150608F4AA
:103D900062C0602F7F2D89E593E079D6811104C040
:103DA00089E593E09DDF811174DF86E0E02FFF2D30
:103DB000A9E5B3E001900D928A95E1F72696E5E03A
:103DC0000C94BF2D20910D018AE0289F90011124B1
:103DD0002417350748F69F5F9093570302C09F3F13
:103DE000D1F71B81111551F026DE91E011160CF070
:103DF0009FEF899F802D112480935B031C811115F7
:103E000051F019DE91E011160CF09FEF899F802D83
:103E1000112480935C0380915B03811509F4A4CF86
:103E200010915C03111509F49FCFF7DD80935B03BC
:103E3000812FF3DD80935C0397CF209109018AE005
:103E4000289F900111242417350708F0A2CF9F5F07
:103E50009093560302C09F3FD1F71D81111551F079
:103E60002BDE91E011160CF09FEF899F802D11241D
:103E700080935D038E81182F811551F01DDE91E036
:103E800011160CF09FEF899F802D112480935E0303
:103E900080915D03811509F47CCF90915E03192F09
:103EA000911509F476CFB9DD80935D03812FB5DDDF
:103EB00080935E036ECFDC01ED91FD918191FE93C5
:103EC000EE930895A0E0B0E0E8E6FFE10C949F2DAA
:103ED000E82FF0E0E856FC4F9491B92E282F269554
:103EE0002695269530E0F901E85CFB4FE490877059
:103EF000F12C082E02C0F594E7940A94E2F7F90138
:103F0000E85DFB4FC490D12C082E02C0D594C79415
:103F10000A94E2F7285E3B4FF901049110E002C0D9
:103F2000159507958A95E2F7C62FD0E0E0FC25C0ED
:103F3000C0FE06C086EE0E948805CE01009759F5A6
:103F4000BE018B2D0E94FE05CE01009761F5C0FCDD
:103F500032C0E0FE06C081EE0E94D005CE0100977F
:103F6000C1F500FF05C08CE20E9414062097C9F538
:103F7000CDB7DEB7E9E00C94BB2D81EE0E94880539
:103F8000CE010097A9F2EFE9FFE03197F1F700C009
:103F900000000197F6CFEFE9FFE03197F1F700C09D
:103FA00000000197CBCFEFE9FFE03197F1F700C0B8
:103FB00000000197CACF86EE0E94D005CE0100977F
:103FC00041F2EFE9FFE03197F1F700C000000197FF
:103FD000F6CFEFE9FFE03197F1F700C0000001975D
:103FE000BECF8FE99FE00197F1F700C00000219755
:103FF000BDCFA0E0B0E0EFEFFFE10C949F2D8C016E
:104000007B01B42EC701F80109958130A0F009F0B9
:1040100058C0C701F8010995C82F813089F4C7013C
:10402000F80109950E9414068B2D90E0009709F085
:1040300040C0C111E7CFCDB7DEB7E9E00C94BB2D8E
:10404000823031F4C701F80109950E948805ECCF50
:10405000833031F4C701F80109950E94D005E4CFFF
:10406000843011F7C701F8010995C82FC12CD12C54
:10407000DAE08C2F8053990B8A30910568F0C114D7
:10408000D10491F2EFE9FFE03197F1F700C00000B1
:1040900081E0C81AD108F3CFDC9D9001DD9D300D81
:1040A0001124820F931F6C01C701F8010995C82FD5
:1040B000E0CFEFE9FFE03197F1F700C00000019792
:1040C000B5CF6B2DFFDE9ECFA2E0B0E0EAE6F0E2D6
:1040D0000C94A62D462F89839A83CE010196BC01AC
:1040E0008BE59FE186DF2296E2E00C94C22D60E032
:1040F000EBCFA0E0B0E0EFE7F0E20C949E2D7C0166
:104100006B01C42FD22FFC0185818115C9F040932A
:104110006103CFD580935F03909360038C2F805E03
:10412000883048F481E0C1FD84E0C0FD880FC2FD05
:1041300082950E941B06CDB7DEB7EAE00C94BA2D3B
:1041400010916103141338C080915F039091600354
:1041500041D55C01B701C6010E944315A816B906F6
:1041600058F5CD2FC05E1D17C1F0812F805E8830BD
:1041700048F481E011FD84E010FD880F12FD829566
:104180000E942006C83048F481E0D1FD84E0D0FDD3
:10419000880FD2FD82950E941B06802F0E94140674
:1041A00081E0D1FD84E0D0FD880FD2FD8295C8303A
:1041B00010F60E942006BFCF8C2F805E883008F05A
:1041C000BACF81E0C1FD84E0C0FD880FC2FD8295B9
:1041D000F0CF0F93FC01CB01E851FC47E730F1052C
:1041E00088F5E850F14D0C94892D06E221EE41EE60
:1041F0006AE17CE77EDF80E00F91089507E225EE1B
:1042000045EE6BE17CE7F6CF06E221EE40EE68E199
:104210007CE7F0CF07E225EE44EE69E17CE7EACFE8
:1042200006E221EE42EE6CE17CE7E4CF07E225EE08
:1042300046EE6DE17CE7DECF08E221E045EE6EE17F
:104240007CE7D8CFFB01858181111092610381E069
:10425000D3CFFA01309709F009950895CF93DF93F2
:10426000EC014A855B856E857F85F3DF8B810E943B
:10427000AE0C8C810E949A0C0E94700D86E01992FF
:104280008A95E9F7DF91CF910895CF93DF93EC0101
:104290008D8181FD10C082608D838B810E94A80C6E
:1042A0008C810E94940C0E94700D488559856E8502
:1042B0007F85CE01CEDF10926403109265038D815D
:1042C00080FD02C0CE01CADFDF91CF9108950F9328
:1042D0001F93CF938C01FB01C581C115A9F080917B
:1042E0006403909165030097A1F08017910789F00E
:1042F00090E00E945F15FC012581246025830083E6
:104300001183C3DF0E94B90C8C2FCF911F910F91A5
:104310000895C0E0F9CFEF92FF920F931F93CF93D0
:10432000DF938C017B01912F975531F081E0CDB760
:10433000DEB7E6E00C94BE2DC02FD0E00E945C15E5
:10434000C817D90708F047C0CE010E945F15EC01DD
:10435000F70185819D8180FB90F99D83811519F17D
:10436000A8D480936203909363038A818F5F8A83CA
:104370000E94910C8B830E94A50C9B81982B9B83A0
:104380000E94BC0C8C834E815F816E857F85CE013F
:1043900060DF8D8181FF02C000E010E000936403C4
:1043A00010936503C3CF4C855D856E857F85CE01F7
:1043B00050DF8D8181FFBACFCE0150DF8091640341
:1043C000909165038017910709F0B0CF10926403B4
:1043D00010926503ABCF80E0AACFA7E0B0E0E3EF97
:1043E000F1E20C94A42D8091640390916503892BD4
:1043F00001F18091620390916303ECD38C01BE01C3
:104400006F5F7F4FFB0187E011928A95E9F78091FA
:104410006403909165030E9443158017910748F447
:104420008091640390E00E945F15FC01258122FFCA
:104430002CDF2796E4E00C94C02DCF93DF938737D1
:104440002CE7920739F088379C47D1F081E0DF9163
:10445000CF910895FB018581811571F019D00E94DB
:10446000B4081CD0C82F17D0D82F12D04C2F6D2FC6
:104470000E94C20980E0EBCF0BD00E94BD08F1CFB3
:10448000FB018581811511F006D0E9CF04D0F5CF6D
:1044900080911001089580910F01089580910E017F
:1044A000089585E290E00E94172E833E69F486E22B
:1044B00090E00E94172E853439F487E290E00E9444
:1044C000172E91E08C3309F090E0892F81700895C8
:1044D000CF93C82F63EE811101C06FEF85E290E0AA
:1044E0000E94332E65E4C11101C06FEF86E290E0B7
:1044F0000E94332E6CE3C11101C06FEF87E290E0A0
:104500000E94332ECF910895089588E290E00E9492
:10451000172E682F70E080E090E008950895CF9303
:10452000C62FFCDF6C2F88E290E00E94332ECF91E3
:10453000089580E0CDDF80E090E0BC01F0DF0E94D4
:1045400059180E94F01881E0C3CFDEDFDEDFE6DF1E
:10455000A8DF811101C0EDCF08959C01FB01858189
:10456000811551F0A90157574038510530F4822F79
:104570000E94F21880E0089581E008952FEFFC0179
:1045800020830895EF92FF920F931F93CF93DF93B1
:10459000EC01E62EE8818091460390914703892B38
:1045A00069F0EE3F01F58981833018F08550833042
:1045B000D0F46E2DCE010E94081315C0E43150F4E2
:1045C000E11551F0E150E33138F4F0E0E150F14D04
:1045D0000C94892DEE3F69F36E2DCE01CFDF03C021
:1045E000198289E08A836E2DCE010E94EB12CDB72D
:1045F000DEB7E6E00C94BE2D8981823061F0833015
:1046000081F0813049F761D30E948F2D6A837B83CB
:104610008C839D83E8CF79DF1A821B821C826D8395
:10462000E2CF8091040190910501892BE1F28E0186
:10463000F12C8F2D0E948011F80182837383648393
:10464000F3940D5F1F4F8F2D863099F7CCCF898162
:10465000823009F0C1CF6A817B818C819D810E946B
:104660008F2D5DDFC0CF4B816A8189810E945118F7
:104670009C013827232732272C833D83B4CF2C81FC
:104680003D813227232732274B816A8189810E940D
:104690005318A9CF0E945918A6CF8FEF8883A3CFB4
:1046A0000E94D31889839FCF0E94D5189C01382778
:1046B0002327322729833A8396CF8B81682F70E096
:1046C0008D3108F090CF89819A8198278927982782
:1046D000AE014C5F5F4F0E94D81885CF80910401D6
:1046E00090910501892B09F47ECF8B81682F70E0B2
:1046F0008D3108F078CF89819A819827892798276A
:10470000AE014C5F5F4F0E94E4186DCF0E94F0181D
:104710006ACF0E944F18C6CF8B81682F70E08D3111
:1047200008F061CF89819A81982789279827AE015F
:104730004C5F5F4F0E94B11856CF8B81682F70E09D
:104740008D3108F050CF89819A8198278927982741
:10475000AE014C5F5F4F0E94BD1845CF80936A0346
:1047600090936B030895FAD1982F81E0913009F06E
:1047700080E00895E0916A03F0916B03309739F07F
:104780000190F081E02D309711F00995089580E0B7
:104790000895E0916A03F0916B03309731F0028045
:1047A000F381E02D309709F009950895E0916A03AF
:1047B000F0916B03309759F024813581232B39F028
:1047C00026E0DC012C930480F581E02D0995089505
:1047D000E0916A03F0916B03309759F0268137819D
:1047E000232B39F022E0DC012C930680F781E02DA9
:1047F00009950895A3E0B0E0E0E0F4E20C94A62D62
:10480000209168033091690328173907B1F080932C
:10481000680390936903E0916A03F0916B0330970A
:1048200061F00084F185E02D309739F023E0298391
:104830008A839B83CE01019609952396E2E00C942E
:10484000C22DA3E0B0E0E7E2F4E20C94A62D2091A3
:1048500066033091670328173907B1F08093660328
:1048600090936703E0916A03F0916B03309761F0D6
:104870000084F185E02D309739F024E029838A8384
:104880009B83CE01019609952396E2E00C94C22DFC
:10489000E0916A03F0916B03309731F00284F38565
:1048A000E02D309709F009950895CF93DF93C091DB
:1048B0000201D091030157DF811521F0809175032A
:1048C00087FD11C09E012E5F3F4F96E080E0915022
:1048D000F90140812F5F3F4F41118F5F9111F7CF59
:1048E000DF91CF91089520910001309101012E5F59
:1048F0003F4F9EE1EBCFCF93C82F811102C080E0E4
:104900002EC031DF811521F08091750387FD0FC026
:104910008091020190910301FC013296089620815A
:104920002C17F9F03196E817F907C9F7E8CF8C2F63
:10493000869586958695C03F10F7E0910001F0912D
:104940000101E80FF11D228130E0C77081E001C054
:10495000880FCA95EAF7282381E0232B81F2CF91B3
:10496000089581E0FCCF9C01FC01329680E09FEF2E
:104970004081461759F031969F3F19F4411101C00B
:10498000982F8F5F8630A1F79F3F09F40895290F74
:10499000311D97FD3A95F90162830895FC01329625
:1049A00008962191261302C0DF011E92E817F9072D
:1049B000C1F70895262F269526952695603F60F429
:1049C000820F911DFC01677021E001C0220F6A95E2
:1049D000EAF78281822B82830895262F26952695D9
:1049E0002695603F68F4820F911DFC019DEF61FDEB
:1049F00097EF60FF959562FD92958281892382836E
:104A00000895CF93C82FAFDE6C2F811559F0809198
:104A1000750387FF07C08091000190910101CADFF3
:104A2000CF91089580910201909103019CDFF8CF0E
:104A3000CF93C82F98DE6C2F811559F080917503A4
:104A400087FF07C08091000190910101C6DFCF91DF
:104A500008958091020190910301A0DFF8CF83DED9
:104A6000811571F08091750387FF0AC0E091000104
:104A7000F091010132968EE111928A95E9F708953D
:104A8000E0910201F0910301329686E0F5CFDC015E
:104A9000FB0111969C9111978181981322C0129667
:104AA0008C911297811519F0928189131AC013966F
:104AB0008C911397811519F09381891312C0159663
:104AC0008C911597811519F0958189130AC0149658
:104AD0009C91911521F081E02481291303C080E08D
:104AE00001C081E0817008950895FECF08958F5F21
:104AF0008093140160911101709112018091130152
:104B000090911401F2CF83E0809314016091110120
:104B1000709112018091130190911401E6CFE7CFBB
:104B2000089581E080931401609111017091120148
:104B30008091130190911401D8CFF3CF089591E0A3
:104B4000811101C090E09093130160911101709167
:104B500012018091130190911401C7CF809113012C
:104B6000089580931201609111017091120180915A
:104B7000130190911401B9CF80911201089580938F
:104B800011016091110170911201809113019091B6
:104B90001401ABCF80911101089508950895FECFBF
:104BA000089508950895F9CF0895CF93FADF0E94EC
:104BB0005812F8DFC0E08C2F0E948011672B682B01
:104BC000692B31F4CF5FC630B1F780E0CF91089503
:104BD00081E0FCCFCF93DF93EC016BD08C1B9D0B5E
:104BE000DF91CF91089585B7806885BF85B78068CC
:104BF00085BF08951F921FB61F9211248F939F9314
:104C0000AF93BF9380916C03811113C08091A9036E
:104C10009091AA03A091AB03B091AC034196A11D62
:104C2000B11D8093A9039093AA03A093AB03B09303
:104C3000AC03BF91AF919F918F911F901FBE1F90AA
:104C400018958091B103843031F10E94E9041092EB
:104C50006C0388E190E020E40FB6F894A895809367
:104C600060000FBE2093600083B7817F846083BFA4
:104C700083B7816083BF7894889583B78E7F83BF25
:104C80000FB6F894A89580916000886180936000C9
:104C9000109260000FBE08950E9443080C94ED042A
:104CA00082E084BD93E095BD9AEF97BD80936E003E
:104CB00008952FB7F8948091A9039091AA03A09129
:104CC000AB03B091AC032FBF08952FB7F894609158
:104CD000A9037091AA038091AB039091AC032FBFFD
:104CE000089578941F921FB61F9211248F939F935B
:104CF000AF93BF938091A9039091AA03A091AB03B6
:104D0000B091AC030196A11DB11D8093A9039093AE
:104D1000AA03A093AB03B093AC03BF91AF919F9153
:104D20008F911F901FBE1F90189581E08093E00027
:104D300080E28093D8001092C9008FE19EE4019731
:104D4000F1F700C00000A7E0B0EBCD018093BA03FB
:104D50009093BB03A093BC03B093BD0388E19CE098
:104D60000FB6F894A895809360000FBE90936000F2
:104D7000FFCF88E19CE00FB6F894A895809360007F
:104D80000FBE90936000FFCF9B01BA019091B103D9
:104D90009430D9F48F708093E9009FEF8091E80000
:104DA00085FD06C085ED8A95F1F700009150B1F7B9
:104DB0008091E80085FF09C040E050E0C901F5D1CD
:104DC0008091E8008E778093E8000895603229F49E
:104DD00040E250E0BC0182E0D7CF089543E050E0CC
:104DE000BC0184E0D1CF46E050E0BC0184E0CCCFF0
:104DF00040E250E0BC0184E0C7CFCF93DF93EC01E9
:104E0000ADDE48E050E0BE0181E0BEDF88E0FE019B
:104E1000ADE6B3E001900D928A95E1F7DF91CF9175
:104E20000895A0E2B0E0E6E1F7E290C68091B10318
:104E30008430F1F483E08093E9008091E80082FF00
:104E400017C08091E80090E085FF07C040E050E087
:104E5000BD01CE010196F5D191E08091E8008B77FC
:104E60008093E800911521F060E2CE0101968ADB83
:104E7000A096E2E087C68091B003811107C068D395
:104E8000B8D38091E20084608093E200089510928C
:104E9000B003089546DE81E052CE6091AD0381E01B
:104EA000611101C080E02FCE9091B10381E0943078
:104EB00009F080E06091AD0332CE42E061EC81E028
:104EC000C3D242E261EC84E0BFD242E261EC82E014
:104ED000BBD242E260EC83E0B7D29091B10381E0B3
:104EE000943009F080E06091AD0301CE8091B3036E
:104EF000893081F148F4823009F497C0833009F495
:104F000058C0813041F008958A3009F481C08B3057
:104F100009F469C008958091B203813A09F048C04C
:104F20008091E800877F8093E8008091B60390919C
:104F3000B703892B59F060E080E090E070E0CDD1BC
:104F40008091E8008B778093E800089568E08DE613
:104F500093E0F4CF8091B203813251F58091B60392
:104F60009091B7038D7F892B19F58091E800877F99
:104F70008093E8008091E80082FF16C02091F30042
:104F80008091F200922F029731F48091F1008130EC
:104F900011F0863019F48091F100E3DD8091E80092
:104FA0008B778093E80084C28091B1038111E2CFB6
:104FB00008958091B203813AD9F78091B603909118
:104FC000B703892BA9F78091E800877F8093E800D9
:104FD0008091E80080FFFCCFC1DD8093F1008091DB
:104FE000E8008E77DECF8091B203813209F780919D
:104FF000B6039091B703892BD9F68091E800877F9B
:105000008093E80055D28091B40399DD0C94430855
:105010008091B203813261F68091E800877F8093AE
:10502000E80046D28091B503AACD8091B203813ABF
:1050300009F0BECF8091E800877F8093E8008091DF
:10504000E80080FFFCCFA6DDC8CF84B7877F84BF90
:105050000FB6F894A89580916000886180936000F5
:10506000109260000FBE80E890E00FB6F894809335
:105070006100909361000FBE60CD6AD2BAD2E2EEB9
:10508000F0E0808184608083789417C585E191E0A9
:1050900065CB8091B103853029F48091B1038530CF
:1050A00011F0FACD0895CDDD80DD8115B1F3809149
:1050B000AF03811591F363D00E944308EECF0895AA
:1050C0009A014091B8035091B90300C0492F50E0B4
:1050D00043305105D1F078F44130510509F44AC00C
:1050E0004230510571F48BE590E04CE954E0F90150
:1050F00040835183089541325105F9F04232510500
:1051000049F180E090E040E0F2CF482F50E082305B
:1051100089F04330510550F4EAE8F4E0452B11F4EE
:10512000E8E9F4E0849190E0AF01E1CF51F7E8E4E1
:10513000F4E0F8CFE6E6F4E0F5CF6330710508F768
:10514000660F771FFB01E954FE4F4081518189E0D2
:1051500090E0CDCF63307105A0F6FB01EE0FFF1F8D
:10516000EF54FE4F4081518162557E4FFB0180819B
:1051700090E0BDCF82E190E047EF54E0B8CF80E10E
:1051800089BD82E189BD09B400FEFDCF8091D800C0
:105190008F7D8093D8008091E00082608093E00052
:1051A0008091E00081FDFCCF0895AF92BF92CF9235
:1051B000DF92EF92FF921F93CF93DF937C01EB017D
:1051C0006A0195D1182F811122C0C114D10439F080
:1051D000F60180819181C81BD90BE80EF91EA12C24
:1051E000B12C2097A1F08091E80085FD20C080912E
:1051F000E8008E778093E800C114D10499F0F6019D
:10520000808191818A0D9B1D8083918315E0812F80
:10521000DF91CF911F91FF90EF90DF90CF90BF90E3
:10522000AF90089564D18115F1F2182FF0CFF701F6
:1052300081917F018093F10021978FEFA81AB80A1E
:10524000D0CFAF92BF92CF92DF92EF92FF921F9397
:10525000CF93DF937C01EB016A0149D1182F8111B3
:1052600022C0C114D10439F0F60180819181C81B9C
:10527000D90BE80EF91EA12CB12C2097A1F080913A
:10528000E80085FD20C08091E8008B778093E800DE
:10529000C114D10499F0F601808191818A0D9B1D82
:1052A0008083918315E0812FDF91CF911F91FF9033
:1052B000EF90DF90CF90BF90AF90089518D18115F7
:1052C000F1F2182FF0CF8091F100F70181937F0167
:1052D00021978FEFA81AB80AD0CFFC018091B803AC
:1052E0009091B9038617970720F06115710561F059
:1052F000CB0140E0009771F441110CC08091E800AF
:1053000082FF36C080E008958091E8008E77809318
:10531000E800EECF2091B1032115B1F12530B1F1B4
:105320002091E80023FD2EC02091E80022FDE6CF69
:105330002091E80020FFDECF4091F3002091F200A1
:10534000342F009719F02830310558F041E028300B
:10535000310509F040E02091E8002E772093E80025
:10536000C9CF41914093F10001972F5F3F4FE9CFA3
:105370008091B103811541F0853041F08091E800C2
:1053800083FFBCCF81E0089582E0089583E0089513
:10539000FC018091B8039091B9038617970720F01C
:1053A0006115710561F0CB0140E0009771F4411186
:1053B0000CC08091E80082FF37C080E008958091A2
:1053C000E8008E778093E800EECF2091B10321159D
:1053D000B9F12530B9F12091E80023FD2FC02091CB
:1053E000E80022FDE6CF2091E80020FFDECF4091CB
:1053F000F3002091F200342F009719F02830310586
:1054000058F041E02830310509F040E02091E800F3
:105410002E772093E800C9CF44914093F100319654
:1054200001972F5F3F4FE8CF8091B103811541F085
:10543000853041F08091E80083FFBBCF81E0089583
:1054400082E0089583E00895982F973028F08F70B8
:105450008093E90081E008959093E900242F762F4E
:1054600050E0981731F07091EC002091ED005091D0
:10547000F00021FD02C09F5FE8CF3091EB003E7F3E
:105480003093EB003091ED003D7F3093ED00309193
:10549000EB0031603093EB007093EC002093ED0053
:1054A0005093F0002091EE0027FDE5CF80E00895B5
:1054B0008091B20387FF13C08091E80082FF06C08D
:1054C0008091E8008B778093E80008958091B10384
:1054D0008111F2CF08958091B1038115D9F38091A4
:1054E000E80080FFF8CF8091E8008E77ECCF209124
:1054F000E4003091E50095E6A9012091EC00822FAF
:10550000817020FF06C08091E80080FF06C080E027
:1055100008952091E80022FD1AC08091B103811501
:1055200089F0853089F08091EB0085FD0FC02091D6
:10553000E4003091E50042175307F9F29150E1F68B
:1055400084E0089582E0089583E0089581E008955D
:105550005FD066D0E0EEF0E0808181608083E8ED8E
:1055600080818F77808319BCA7EDB0E08C918E7F0E
:105570008C9380818F7E80831092B0030895CF93A7
:10558000DF9346D04DD0C8EDD0E088818F778883F7
:1055900088818068888388818F7D888319BC109278
:1055A000B1031092AD031092AF031092AE03E0EE80
:1055B000F0E080818B7F808388818160888342E0F6
:1055C00060E080E041DFE1EEF0E080818E7F80836B
:1055D000E2EE808181608083808188608083E0EE5C
:1055E00080818E7F8083888180618883DF91CF91E5
:1055F0000895E8EDF0E080818F7E8083E7ED808183
:105600008160808384E082BF81E08093B003B7CF64
:10561000E8EDF0E080818E7F80831092E2000895B3
:105620001092DA001092E10008951F920F920FB6C7
:105630000F9211242F933F934F935F936F937F9318
:105640008F939F93AF93BF93EF93FF938091E1006C
:1056500082FF0AC08091E20082FF06C08091E100D3
:105660008B7F8093E10028D28091DA0080FF18C000
:105670008091D80080FF14C08091DA008E7F8093E3
:10568000DA008091D90080FF8FC080E189BD82E17E
:1056900089BD09B400FEFDCF81E08093B103EBDB4F
:1056A0008091E10080FF18C08091E20080FF14C06B
:1056B0008091E2008E7F8093E2008091E200806121
:1056C0008093E2008091D80080628093D80019BC5A
:1056D00085E08093B103E1DB8091E10084FF28C085
:1056E0008091E20084FF24C080E189BD82E189BD10
:1056F00009B400FEFDCF8091D8008F7D8093D80043
:105700008091E1008F7E8093E1008091E2008F7EA6
:105710008093E2008091E20081608093E2008091BA
:10572000AD03811509F445C084E08093B103BCDB6F
:105730008091E10083FF27C08091E20083FF23C0B6
:105740008091E100877F8093E10082E08093B10344
:105750001092AD038091E1008E7F8093E1008091F3
:10576000E2008E7F8093E2008091E200806180936E
:10577000E20042E060E080E067DE8091F000886057
:105780008093F00087DBFF91EF91BF91AF919F91E4
:105790008F917F916F915F914F913F912F910F90DA
:1057A0000FBE0F901F90189519BC1092B1036FDBBC
:1057B00077CF8091E30087FF02C083E0B6CF81E01E
:1057C000B4CF1F920F920FB60F9211241F932F93F5
:1057D0003F934F935F936F937F938F939F93AF9379
:1057E000BF93CF93DF93EF93FF93E9EEF0E08081D7
:1057F0001091EC008F7010FB112717F9182B1082F5
:10580000C0EFD0E08881877F888378941CD0E9EE50
:10581000F0E010828881886088831F701083FF9178
:10582000EF91DF91CF91BF91AF919F918F917F9138
:105830006F915F914F913F912F911F910F900FBEEC
:105840000F901F901895AAE2B0E0E8E2FCE27DC15B
:1058500082EB93E0FC0101962091F100208323E08C
:105860008A3B9207B9F742DB8091E80083FF37C09B
:105870008091B2039091B3039A3088F5E92FF0E05C
:10588000EE5EF04D46C1803889F0823841F5809156
:10589000B6038F70873018F58093E9008091EB0094
:1058A00085FB882780F91092E90006C08091AF033C
:1058B000880F9091AE03892B9091E800977F909389
:1058C000E8008093F1001092F1008091E8008E775B
:1058D00022C0811115C08091B403813001F1809103
:1058E000E80083FF0AC08091E800877F8093E8008A
:1058F0008091EB0080628093EB00AA96E3E041C1C7
:10590000823069F78091B403811579F01092E90033
:105910008091E800877F8093E800CADDE0CF933074
:1059200009F080E08093AF03F1CF8091B6038F70D0
:10593000282F2150263098F68093E9002091EB0023
:1059400020FFE4CF933031F48091EB0080628093AC
:10595000EB00DCCF9091EB0090619093EB0021E0A5
:1059600001C0220F8A95EAF72093EA001092EA001C
:105970008091EB008860EBCF8111B1CF8091B403AF
:105980008F77182F8091E3008078812B8093E3003C
:105990008091E800877F8093E8008ADD8091E800AD
:1059A00080FFFCCF8091E30080688093E30083E078
:1059B000111101C082E08093B10391CF80588230F1
:1059C00008F08DCF8091B4039091B5038C3D23E016
:1059D000920789F583E08A838AE289834FB7F89436
:1059E000DE01139620E03EE051E2E32FF0E0509319
:1059F0005700849120FF03C082958F703F5F8F70A6
:105A00008A30B8F0895C8D931D922F5F243169F73D
:105A10004FBF8091E800877F8093E8006AE270E0E2
:105A2000CE0101965ADC8091E8008B778093E800E4
:105A300056CF805DE8CF6091B6037091B7039E01A9
:105A40002F5F3F4FA9013CDBBC01892B09F447CFF5
:105A50009091E800977F9093E80089819A8198DC83
:105A6000E2CF803809F03BCF8091E800877F8093B8
:105A7000E8008091AD038093F10027CF81112FCFF3
:105A80009091B403923008F02ACF8091E800877F8C
:105A90008093E8009093AD030BDD8091AD038115F9
:105AA00029F084E08093B10308DA19CF8091E300F4
:105AB00087FDF7CF81E0F6CF0895CF938091B103B2
:105AC000811591F08091E900C091EC008F70C0FBCE
:105AD000CC27C7F9C82B1092E9008091E80083FD1C
